{
  "_format": "hh-sol-artifact-1",
  "contractName": "Marketplace",
  "sourceName": "src/Marketplace.sol",
  "abi": [
    {
      "inputs": [
        {
          "internalType": "address",
          "name": "_musicToken",
          "type": "address"
        },
        {
          "internalType": "address",
          "name": "_feeRecipient",
          "type": "address"
        }
      ],
      "stateMutability": "nonpayable",
      "type": "constructor"
    },
    {
      "inputs": [],
      "name": "AccessControlBadConfirmation",
      "type": "error"
    },
    {
      "inputs": [
        {
          "internalType": "address",
          "name": "account",
          "type": "address"
        },
        {
          "internalType": "bytes32",
          "name": "neededRole",
          "type": "bytes32"
        }
      ],
      "name": "AccessControlUnauthorizedAccount",
      "type": "error"
    },
    {
      "inputs": [],
      "name": "ReentrancyGuardReentrantCall",
      "type": "error"
    },
    {
      "anonymous": false,
      "inputs": [
        {
          "indexed": false,
          "internalType": "address",
          "name": "newRecipient",
          "type": "address"
        }
      ],
      "name": "FeeRecipientUpdated",
      "type": "event"
    },
    {
      "anonymous": false,
      "inputs": [
        {
          "indexed": true,
          "internalType": "uint256",
          "name": "listingId",
          "type": "uint256"
        }
      ],
      "name": "ListingCancelled",
      "type": "event"
    },
    {
      "anonymous": false,
      "inputs": [
        {
          "indexed": true,
          "internalType": "uint256",
          "name": "listingId",
          "type": "uint256"
        },
        {
          "indexed": true,
          "internalType": "address",
          "name": "seller",
          "type": "address"
        },
        {
          "indexed": true,
          "internalType": "uint256",
          "name": "trackId",
          "type": "uint256"
        },
        {
          "indexed": false,
          "internalType": "uint256",
          "name": "amount",
          "type": "uint256"
        },
        {
          "indexed": false,
          "internalType": "uint256",
          "name": "pricePerToken",
          "type": "uint256"
        }
      ],
      "name": "ListingCreated",
      "type": "event"
    },
    {
      "anonymous": false,
      "inputs": [
        {
          "indexed": true,
          "internalType": "uint256",
          "name": "listingId",
          "type": "uint256"
        },
        {
          "indexed": false,
          "internalType": "uint256",
          "name": "newPrice",
          "type": "uint256"
        },
        {
          "indexed": false,
          "internalType": "uint256",
          "name": "newAmount",
          "type": "uint256"
        }
      ],
      "name": "ListingUpdated",
      "type": "event"
    },
    {
      "anonymous": false,
      "inputs": [
        {
          "indexed": true,
          "internalType": "uint256",
          "name": "orderId",
          "type": "uint256"
        }
      ],
      "name": "OrderCancelled",
      "type": "event"
    },
    {
      "anonymous": false,
      "inputs": [
        {
          "indexed": true,
          "internalType": "uint256",
          "name": "orderId",
          "type": "uint256"
        },
        {
          "indexed": true,
          "internalType": "address",
          "name": "buyer",
          "type": "address"
        },
        {
          "indexed": true,
          "internalType": "uint256",
          "name": "trackId",
          "type": "uint256"
        },
        {
          "indexed": false,
          "internalType": "uint256",
          "name": "amount",
          "type": "uint256"
        },
        {
          "indexed": false,
          "internalType": "uint256",
          "name": "maxPricePerToken",
          "type": "uint256"
        }
      ],
      "name": "OrderCreated",
      "type": "event"
    },
    {
      "anonymous": false,
      "inputs": [
        {
          "indexed": true,
          "internalType": "uint256",
          "name": "orderId",
          "type": "uint256"
        },
        {
          "indexed": true,
          "internalType": "address",
          "name": "seller",
          "type": "address"
        },
        {
          "indexed": false,
          "internalType": "uint256",
          "name": "amount",
          "type": "uint256"
        },
        {
          "indexed": false,
          "internalType": "uint256",
          "name": "totalPrice",
          "type": "uint256"
        }
      ],
      "name": "OrderFilled",
      "type": "event"
    },
    {
      "anonymous": false,
      "inputs": [
        {
          "indexed": false,
          "internalType": "uint256",
          "name": "newFee",
          "type": "uint256"
        }
      ],
      "name": "PlatformFeeUpdated",
      "type": "event"
    },
    {
      "anonymous": false,
      "inputs": [
        {
          "indexed": true,
          "internalType": "bytes32",
          "name": "role",
          "type": "bytes32"
        },
        {
          "indexed": true,
          "internalType": "bytes32",
          "name": "previousAdminRole",
          "type": "bytes32"
        },
        {
          "indexed": true,
          "internalType": "bytes32",
          "name": "newAdminRole",
          "type": "bytes32"
        }
      ],
      "name": "RoleAdminChanged",
      "type": "event"
    },
    {
      "anonymous": false,
      "inputs": [
        {
          "indexed": true,
          "internalType": "bytes32",
          "name": "role",
          "type": "bytes32"
        },
        {
          "indexed": true,
          "internalType": "address",
          "name": "account",
          "type": "address"
        },
        {
          "indexed": true,
          "internalType": "address",
          "name": "sender",
          "type": "address"
        }
      ],
      "name": "RoleGranted",
      "type": "event"
    },
    {
      "anonymous": false,
      "inputs": [
        {
          "indexed": true,
          "internalType": "bytes32",
          "name": "role",
          "type": "bytes32"
        },
        {
          "indexed": true,
          "internalType": "address",
          "name": "account",
          "type": "address"
        },
        {
          "indexed": true,
          "internalType": "address",
          "name": "sender",
          "type": "address"
        }
      ],
      "name": "RoleRevoked",
      "type": "event"
    },
    {
      "anonymous": false,
      "inputs": [
        {
          "indexed": true,
          "internalType": "uint256",
          "name": "listingId",
          "type": "uint256"
        },
        {
          "indexed": true,
          "internalType": "address",
          "name": "buyer",
          "type": "address"
        },
        {
          "indexed": true,
          "internalType": "address",
          "name": "seller",
          "type": "address"
        },
        {
          "indexed": false,
          "internalType": "uint256",
          "name": "trackId",
          "type": "uint256"
        },
        {
          "indexed": false,
          "internalType": "uint256",
          "name": "amount",
          "type": "uint256"
        },
        {
          "indexed": false,
          "internalType": "uint256",
          "name": "totalPrice",
          "type": "uint256"
        }
      ],
      "name": "TokensSold",
      "type": "event"
    },
    {
      "inputs": [],
      "name": "ADMIN_ROLE",
      "outputs": [
        {
          "internalType": "bytes32",
          "name": "",
          "type": "bytes32"
        }
      ],
      "stateMutability": "view",
      "type": "function"
    },
    {
      "inputs": [],
      "name": "DEFAULT_ADMIN_ROLE",
      "outputs": [
        {
          "internalType": "bytes32",
          "name": "",
          "type": "bytes32"
        }
      ],
      "stateMutability": "view",
      "type": "function"
    },
    {
      "inputs": [
        {
          "internalType": "uint256",
          "name": "listingId",
          "type": "uint256"
        },
        {
          "internalType": "uint256",
          "name": "amount",
          "type": "uint256"
        }
      ],
      "name": "buyTokens",
      "outputs": [],
      "stateMutability": "payable",
      "type": "function"
    },
    {
      "inputs": [
        {
          "internalType": "uint256",
          "name": "listingId",
          "type": "uint256"
        }
      ],
      "name": "cancelListing",
      "outputs": [],
      "stateMutability": "nonpayable",
      "type": "function"
    },
    {
      "inputs": [
        {
          "internalType": "uint256",
          "name": "orderId",
          "type": "uint256"
        }
      ],
      "name": "cancelOrder",
      "outputs": [],
      "stateMutability": "nonpayable",
      "type": "function"
    },
    {
      "inputs": [
        {
          "internalType": "uint256",
          "name": "trackId",
          "type": "uint256"
        },
        {
          "internalType": "uint256",
          "name": "amount",
          "type": "uint256"
        },
        {
          "internalType": "uint256",
          "name": "pricePerToken",
          "type": "uint256"
        }
      ],
      "name": "createListing",
      "outputs": [
        {
          "internalType": "uint256",
          "name": "",
          "type": "uint256"
        }
      ],
      "stateMutability": "nonpayable",
      "type": "function"
    },
    {
      "inputs": [
        {
          "internalType": "uint256",
          "name": "trackId",
          "type": "uint256"
        },
        {
          "internalType": "uint256",
          "name": "amount",
          "type": "uint256"
        },
        {
          "internalType": "uint256",
          "name": "maxPricePerToken",
          "type": "uint256"
        }
      ],
      "name": "createOrder",
      "outputs": [
        {
          "internalType": "uint256",
          "name": "",
          "type": "uint256"
        }
      ],
      "stateMutability": "payable",
      "type": "function"
    },
    {
      "inputs": [],
      "name": "feeRecipient",
      "outputs": [
        {
          "internalType": "address",
          "name": "",
          "type": "address"
        }
      ],
      "stateMutability": "view",
      "type": "function"
    },
    {
      "inputs": [
        {
          "internalType": "uint256",
          "name": "orderId",
          "type": "uint256"
        },
        {
          "internalType": "uint256",
          "name": "amount",
          "type": "uint256"
        },
        {
          "internalType": "uint256",
          "name": "pricePerToken",
          "type": "uint256"
        }
      ],
      "name": "fillOrder",
      "outputs": [],
      "stateMutability": "nonpayable",
      "type": "function"
    },
    {
      "inputs": [
        {
          "internalType": "uint256",
          "name": "trackId",
          "type": "uint256"
        }
      ],
      "name": "getActiveListings",
      "outputs": [
        {
          "components": [
            {
              "internalType": "uint256",
              "name": "listingId",
              "type": "uint256"
            },
            {
              "internalType": "address",
              "name": "seller",
              "type": "address"
            },
            {
              "internalType": "uint256",
              "name": "trackId",
              "type": "uint256"
            },
            {
              "internalType": "uint256",
              "name": "amount",
              "type": "uint256"
            },
            {
              "internalType": "uint256",
              "name": "pricePerToken",
              "type": "uint256"
            },
            {
              "internalType": "uint256",
              "name": "createdAt",
              "type": "uint256"
            },
            {
              "internalType": "bool",
              "name": "isActive",
              "type": "bool"
            }
          ],
          "internalType": "struct Marketplace.Listing[]",
          "name": "",
          "type": "tuple[]"
        }
      ],
      "stateMutability": "view",
      "type": "function"
    },
    {
      "inputs": [
        {
          "internalType": "uint256",
          "name": "trackId",
          "type": "uint256"
        }
      ],
      "name": "getFloorPrice",
      "outputs": [
        {
          "internalType": "uint256",
          "name": "",
          "type": "uint256"
        }
      ],
      "stateMutability": "view",
      "type": "function"
    },
    {
      "inputs": [
        {
          "internalType": "bytes32",
          "name": "role",
          "type": "bytes32"
        }
      ],
      "name": "getRoleAdmin",
      "outputs": [
        {
          "internalType": "bytes32",
          "name": "",
          "type": "bytes32"
        }
      ],
      "stateMutability": "view",
      "type": "function"
    },
    {
      "inputs": [
        {
          "internalType": "bytes32",
          "name": "role",
          "type": "bytes32"
        },
        {
          "internalType": "address",
          "name": "account",
          "type": "address"
        }
      ],
      "name": "grantRole",
      "outputs": [],
      "stateMutability": "nonpayable",
      "type": "function"
    },
    {
      "inputs": [
        {
          "internalType": "bytes32",
          "name": "role",
          "type": "bytes32"
        },
        {
          "internalType": "address",
          "name": "account",
          "type": "address"
        }
      ],
      "name": "hasRole",
      "outputs": [
        {
          "internalType": "bool",
          "name": "",
          "type": "bool"
        }
      ],
      "stateMutability": "view",
      "type": "function"
    },
    {
      "inputs": [
        {
          "internalType": "uint256",
          "name": "",
          "type": "uint256"
        }
      ],
      "name": "listings",
      "outputs": [
        {
          "internalType": "uint256",
          "name": "listingId",
          "type": "uint256"
        },
        {
          "internalType": "address",
          "name": "seller",
          "type": "address"
        },
        {
          "internalType": "uint256",
          "name": "trackId",
          "type": "uint256"
        },
        {
          "internalType": "uint256",
          "name": "amount",
          "type": "uint256"
        },
        {
          "internalType": "uint256",
          "name": "pricePerToken",
          "type": "uint256"
        },
        {
          "internalType": "uint256",
          "name": "createdAt",
          "type": "uint256"
        },
        {
          "internalType": "bool",
          "name": "isActive",
          "type": "bool"
        }
      ],
      "stateMutability": "view",
      "type": "function"
    },
    {
      "inputs": [],
      "name": "minListingPrice",
      "outputs": [
        {
          "internalType": "uint256",
          "name": "",
          "type": "uint256"
        }
      ],
      "stateMutability": "view",
      "type": "function"
    },
    {
      "inputs": [],
      "name": "musicToken",
      "outputs": [
        {
          "internalType": "contract IERC1155",
          "name": "",
          "type": "address"
        }
      ],
      "stateMutability": "view",
      "type": "function"
    },
    {
      "inputs": [
        {
          "internalType": "address",
          "name": "",
          "type": "address"
        },
        {
          "internalType": "address",
          "name": "",
          "type": "address"
        },
        {
          "internalType": "uint256[]",
          "name": "",
          "type": "uint256[]"
        },
        {
          "internalType": "uint256[]",
          "name": "",
          "type": "uint256[]"
        },
        {
          "internalType": "bytes",
          "name": "",
          "type": "bytes"
        }
      ],
      "name": "onERC1155BatchReceived",
      "outputs": [
        {
          "internalType": "bytes4",
          "name": "",
          "type": "bytes4"
        }
      ],
      "stateMutability": "nonpayable",
      "type": "function"
    },
    {
      "inputs": [
        {
          "internalType": "address",
          "name": "",
          "type": "address"
        },
        {
          "internalType": "address",
          "name": "",
          "type": "address"
        },
        {
          "internalType": "uint256",
          "name": "",
          "type": "uint256"
        },
        {
          "internalType": "uint256",
          "name": "",
          "type": "uint256"
        },
        {
          "internalType": "bytes",
          "name": "",
          "type": "bytes"
        }
      ],
      "name": "onERC1155Received",
      "outputs": [
        {
          "internalType": "bytes4",
          "name": "",
          "type": "bytes4"
        }
      ],
      "stateMutability": "nonpayable",
      "type": "function"
    },
    {
      "inputs": [
        {
          "internalType": "uint256",
          "name": "",
          "type": "uint256"
        }
      ],
      "name": "orders",
      "outputs": [
        {
          "internalType": "uint256",
          "name": "orderId",
          "type": "uint256"
        },
        {
          "internalType": "address",
          "name": "buyer",
          "type": "address"
        },
        {
          "internalType": "uint256",
          "name": "trackId",
          "type": "uint256"
        },
        {
          "internalType": "uint256",
          "name": "amount",
          "type": "uint256"
        },
        {
          "internalType": "uint256",
          "name": "maxPricePerToken",
          "type": "uint256"
        },
        {
          "internalType": "uint256",
          "name": "createdAt",
          "type": "uint256"
        },
        {
          "internalType": "bool",
          "name": "isActive",
          "type": "bool"
        }
      ],
      "stateMutability": "view",
      "type": "function"
    },
    {
      "inputs": [],
      "name": "platformFee",
      "outputs": [
        {
          "internalType": "uint256",
          "name": "",
          "type": "uint256"
        }
      ],
      "stateMutability": "view",
      "type": "function"
    },
    {
      "inputs": [
        {
          "internalType": "bytes32",
          "name": "role",
          "type": "bytes32"
        },
        {
          "internalType": "address",
          "name": "callerConfirmation",
          "type": "address"
        }
      ],
      "name": "renounceRole",
      "outputs": [],
      "stateMutability": "nonpayable",
      "type": "function"
    },
    {
      "inputs": [
        {
          "internalType": "bytes32",
          "name": "role",
          "type": "bytes32"
        },
        {
          "internalType": "address",
          "name": "account",
          "type": "address"
        }
      ],
      "name": "revokeRole",
      "outputs": [],
      "stateMutability": "nonpayable",
      "type": "function"
    },
    {
      "inputs": [
        {
          "internalType": "address",
          "name": "",
          "type": "address"
        },
        {
          "internalType": "uint256",
          "name": "",
          "type": "uint256"
        }
      ],
      "name": "sellerListings",
      "outputs": [
        {
          "internalType": "uint256",
          "name": "",
          "type": "uint256"
        }
      ],
      "stateMutability": "view",
      "type": "function"
    },
    {
      "inputs": [
        {
          "internalType": "address",
          "name": "newRecipient",
          "type": "address"
        }
      ],
      "name": "setFeeRecipient",
      "outputs": [],
      "stateMutability": "nonpayable",
      "type": "function"
    },
    {
      "inputs": [
        {
          "internalType": "uint256",
          "name": "newMinPrice",
          "type": "uint256"
        }
      ],
      "name": "setMinListingPrice",
      "outputs": [],
      "stateMutability": "nonpayable",
      "type": "function"
    },
    {
      "inputs": [
        {
          "internalType": "address",
          "name": "newMusicToken",
          "type": "address"
        }
      ],
      "name": "setMusicToken",
      "outputs": [],
      "stateMutability": "nonpayable",
      "type": "function"
    },
    {
      "inputs": [
        {
          "internalType": "uint256",
          "name": "newFee",
          "type": "uint256"
        }
      ],
      "name": "setPlatformFee",
      "outputs": [],
      "stateMutability": "nonpayable",
      "type": "function"
    },
    {
      "inputs": [
        {
          "internalType": "bytes4",
          "name": "interfaceId",
          "type": "bytes4"
        }
      ],
      "name": "supportsInterface",
      "outputs": [
        {
          "internalType": "bool",
          "name": "",
          "type": "bool"
        }
      ],
      "stateMutability": "view",
      "type": "function"
    },
    {
      "inputs": [],
      "name": "totalTrades",
      "outputs": [
        {
          "internalType": "uint256",
          "name": "",
          "type": "uint256"
        }
      ],
      "stateMutability": "view",
      "type": "function"
    },
    {
      "inputs": [],
      "name": "totalVolume",
      "outputs": [
        {
          "internalType": "uint256",
          "name": "",
          "type": "uint256"
        }
      ],
      "stateMutability": "view",
      "type": "function"
    },
    {
      "inputs": [
        {
          "internalType": "uint256",
          "name": "",
          "type": "uint256"
        },
        {
          "internalType": "uint256",
          "name": "",
          "type": "uint256"
        }
      ],
      "name": "trackListings",
      "outputs": [
        {
          "internalType": "uint256",
          "name": "",
          "type": "uint256"
        }
      ],
      "stateMutability": "view",
      "type": "function"
    },
    {
      "inputs": [
        {
          "internalType": "uint256",
          "name": "listingId",
          "type": "uint256"
        },
        {
          "internalType": "uint256",
          "name": "newPrice",
          "type": "uint256"
        },
        {
          "internalType": "uint256",
          "name": "newAmount",
          "type": "uint256"
        }
      ],
      "name": "updateListing",
      "outputs": [],
      "stateMutability": "nonpayable",
      "type": "function"
    }
  ],
  "bytecode": "0x608060405260fa60095566038d7ea4c68000600b553480156200002157600080fd5b5060405162002a6e38038062002a6e833981016040819052620000449162000235565b600180556001600160a01b038216620000a45760405162461bcd60e51b815260206004820152601360248201527f496e76616c6964206d7573696320746f6b656e0000000000000000000000000060448201526064015b60405180910390fd5b6001600160a01b038116620000fc5760405162461bcd60e51b815260206004820152601560248201527f496e76616c69642066656520726563697069656e74000000000000000000000060448201526064016200009b565b6200010960003362000169565b50620001367fa49807205ce4d355092ef5a8a18f56e8913cf4a201fbe287825b095693c217753362000169565b50600280546001600160a01b039384166001600160a01b031991821617909155600a80549290931691161790556200026d565b6000828152602081815260408083206001600160a01b038516845290915281205460ff166200020e576000838152602081815260408083206001600160a01b03861684529091529020805460ff19166001179055620001c53390565b6001600160a01b0316826001600160a01b0316847f2f8788117e7eff1d82e926ec794901d17c78024a50270940304540a733656f0d60405160405180910390a450600162000212565b5060005b92915050565b80516001600160a01b03811681146200023057600080fd5b919050565b600080604083850312156200024957600080fd5b620002548362000218565b9150620002646020840162000218565b90509250929050565b6127f1806200027d6000396000f3fe6080604052600436106101ee5760003560e01c806391d148541161010d578063bc197c81116100a0578063e69875011161006f578063e698750114610665578063e74b981b14610692578063eb3c79da146106b2578063f23a6e61146106d2578063f6cf2a16146106fe57600080fd5b8063bc197c8114610584578063d547741f146105c9578063de74e57b146105e9578063e275c9971461064f57600080fd5b8063a85c38ef116100dc578063a85c38ef1461047f578063b03053b614610524578063b2d4cf1814610544578063b33e156e1461056457600080fd5b806391d14854146104215780639ba6a78514610441578063a1ba444d14610457578063a217fddf1461046a57600080fd5b8063305a67a811610185578063514fcac711610154578063514fcac7146103b65780635f81a57c146103d657806375b238fc146103ec5780637975ce281461040e57600080fd5b8063305a67a81461031e57806336568abe1461033e578063469048401461035e5780634f801c8f1461039657600080fd5b806323fcbd34116101c157806323fcbd3414610298578063248a9ca3146102b857806326232a2e146102e85780632f2ff15d146102fe57600080fd5b806301ffc9a7146101f3578063054564f01461022857806312e8e2c31461025657806316ce105d14610278575b600080fd5b3480156101ff57600080fd5b5061021361020e366004612234565b61071e565b60405190151581526020015b60405180910390f35b34801561023457600080fd5b5061024861024336600461227a565b61072f565b60405190815260200161021f565b34801561026257600080fd5b506102766102713660046122a4565b610760565b005b34801561028457600080fd5b506102766102933660046122bd565b6107fb565b3480156102a457600080fd5b506102766102b33660046122d8565b61087e565b3480156102c457600080fd5b506102486102d33660046122a4565b60009081526020819052604090206001015490565b3480156102f457600080fd5b5061024860095481565b34801561030a57600080fd5b50610276610319366004612304565b610d33565b34801561032a57600080fd5b506102766103393660046122a4565b610d5e565b34801561034a57600080fd5b50610276610359366004612304565b610e99565b34801561036a57600080fd5b50600a5461037e906001600160a01b031681565b6040516001600160a01b03909116815260200161021f565b3480156103a257600080fd5b506102486103b1366004612330565b610ecc565b3480156103c257600080fd5b506102766103d13660046122a4565b610ee8565b3480156103e257600080fd5b50610248600c5481565b3480156103f857600080fd5b5061024860008051602061279c83398151915281565b61027661041c366004612330565b611057565b34801561042d57600080fd5b5061021361043c366004612304565b611451565b34801561044d57600080fd5b50610248600b5481565b6102486104653660046122d8565b61147a565b34801561047657600080fd5b50610248600081565b34801561048b57600080fd5b506104e561049a3660046122a4565b6006602081905260009182526040909120805460018201546002830154600384015460048501546005860154959096015493956001600160a01b039093169491939092919060ff1687565b604080519788526001600160a01b039096166020880152948601939093526060850191909152608084015260a0830152151560c082015260e00161021f565b34801561053057600080fd5b5061024861053f3660046122d8565b6116e7565b34801561055057600080fd5b5061024861055f3660046122a4565b6119a5565b34801561057057600080fd5b5061027661057f3660046122a4565b611a49565b34801561059057600080fd5b506105b061059f366004612489565b63bc197c8160e01b95945050505050565b6040516001600160e01b0319909116815260200161021f565b3480156105d557600080fd5b506102766105e4366004612304565b611a67565b3480156105f557600080fd5b506104e56106043660046122a4565b6005602081905260009182526040909120805460018201546002830154600384015460048501549585015460069095015493956001600160a01b039093169491939092919060ff1687565b34801561065b57600080fd5b50610248600d5481565b34801561067157600080fd5b506106856106803660046122a4565b611a8c565b60405161021f9190612533565b34801561069e57600080fd5b506102766106ad3660046122bd565b611cc2565b3480156106be57600080fd5b5060025461037e906001600160a01b031681565b3480156106de57600080fd5b506105b06106ed3660046125c0565b63f23a6e6160e01b95945050505050565b34801561070a57600080fd5b506102766107193660046122d8565b611d72565b600061072982612070565b92915050565b6008602052816000526040600020818154811061074b57600080fd5b90600052602060002001600091509150505481565b60008051602061279c83398151915261077881612095565b6103e88211156107be5760405162461bcd60e51b815260206004820152600c60248201526b08ccaca40e8dede40d0d2ced60a31b60448201526064015b60405180910390fd5b60098290556040518281527f45610d581145924dd7090a5017e5f2b1d6f42213bb2e95707ff86846bbfcb1ca906020015b60405180910390a15050565b60008051602061279c83398151915261081381612095565b6001600160a01b03821661085b5760405162461bcd60e51b815260206004820152600f60248201526e496e76616c6964206164647265737360881b60448201526064016107b5565b50600280546001600160a01b0319166001600160a01b0392909216919091179055565b61088661209f565b60008381526006602081905260409091209081015460ff166108dd5760405162461bcd60e51b815260206004820152601060248201526f4f72646572206e6f742061637469766560801b60448201526064016107b5565b6000831180156108f1575080600301548311155b61092e5760405162461bcd60e51b815260206004820152600e60248201526d125b9d985b1a5908185b5bdd5b9d60921b60448201526064016107b5565b80600401548211156109735760405162461bcd60e51b815260206004820152600e60248201526d0a0e4d2c6ca40e8dede40d0d2ced60931b60448201526064016107b5565b6002805490820154604051627eeac760e11b815233600482015260248101919091526000916001600160a01b03169062fdd58e90604401602060405180830381865afa1580156109c7573d6000803e3d6000fd5b505050506040513d601f19601f820116820180604052508101906109eb9190612625565b905083811015610a0d5760405162461bcd60e51b81526004016107b59061263e565b6000610a198585612682565b9050600061271060095483610a2e9190612682565b610a389190612699565b90506000610a4682846126bb565b905086856003016000828254610a5c91906126bb565b90915550506003850154600003610a7a5760068501805460ff191690555b60028054600187015491870154604051637921219560e11b81526001600160a01b039283169363f242432a93610abb93339392909116918d906004016126ce565b600060405180830381600087803b158015610ad557600080fd5b505af1158015610ae9573d6000803e3d6000fd5b5050600a54604051600093506001600160a01b03909116915084908381818185875af1925050503d8060008114610b3c576040519150601f19603f3d011682016040523d82523d6000602084013e610b41565b606091505b5050905080610b885760405162461bcd60e51b8152602060048201526013602482015272119959481d1c985b9cd9995c8819985a5b1959606a1b60448201526064016107b5565b604051600090339084908381818185875af1925050503d8060008114610bca576040519150601f19603f3d011682016040523d82523d6000602084013e610bcf565b606091505b5050905080610c185760405162461bcd60e51b815260206004820152601560248201527414d95b1b195c881c185e5b595b9d0819985a5b1959605a1b60448201526064016107b5565b600089898960040154610c2b91906126bb565b610c359190612682565b90508015610cb45760018801546040516000916001600160a01b03169083908381818185875af1925050503d8060008114610c8c576040519150601f19603f3d011682016040523d82523d6000602084013e610c91565b606091505b5050905080610cb25760405162461bcd60e51b81526004016107b590612706565b505b85600c6000828254610cc6919061272d565b9091555050600d8054906000610cdb83612740565b9091555050604080518b81526020810188905233918d917f36a54e61f475a84cd4a5c3b403be29e6101b05ec843b61fb97c3e123ff59b3f4910160405180910390a35050505050505050610d2e60018055565b505050565b600082815260208190526040902060010154610d4e81612095565b610d5883836120c9565b50505050565b610d6661209f565b6000818152600560205260409020600681015460ff16610d985760405162461bcd60e51b81526004016107b590612759565b60018101546001600160a01b03163314610de55760405162461bcd60e51b815260206004820152600e60248201526d2737ba103a34329039b2b63632b960911b60448201526064016107b5565b60068101805460ff1916905560028054908201546003830154604051637921219560e11b81526001600160a01b039093169263f242432a92610e2f923092339291906004016126ce565b600060405180830381600087803b158015610e4957600080fd5b505af1158015610e5d573d6000803e3d6000fd5b50506040518492507f411aee90354c51b1b04cd563fcab2617142a9d50da19232d888547c8a1b7fd8a9150600090a250610e9660018055565b50565b6001600160a01b0381163314610ec25760405163334bd91960e11b815260040160405180910390fd5b610d2e828261215b565b6007602052816000526040600020818154811061074b57600080fd5b610ef061209f565b60008181526006602081905260409091209081015460ff16610f475760405162461bcd60e51b815260206004820152601060248201526f4f72646572206e6f742061637469766560801b60448201526064016107b5565b60018101546001600160a01b03163314610f935760405162461bcd60e51b815260206004820152600d60248201526c2737ba103a343290313abcb2b960991b60448201526064016107b5565b60068101805460ff1916905560038101546004820154600091610fb591612682565b604051909150600090339083908381818185875af1925050503d8060008114610ffa576040519150601f19603f3d011682016040523d82523d6000602084013e610fff565b606091505b50509050806110205760405162461bcd60e51b81526004016107b590612706565b60405184907f61b9399f2f0f32ca39ce8d7be32caed5ec22fe07a6daba3a467ed479ec60658290600090a2505050610e9660018055565b61105f61209f565b6000828152600560205260409020600681015460ff166110915760405162461bcd60e51b81526004016107b590612759565b6000821180156110a5575080600301548211155b6110e25760405162461bcd60e51b815260206004820152600e60248201526d125b9d985b1a5908185b5bdd5b9d60921b60448201526064016107b5565b60008282600401546110f49190612682565b90508034101561113d5760405162461bcd60e51b8152602060048201526014602482015273125b9cdd59999a58da595b9d081c185e5b595b9d60621b60448201526064016107b5565b6000612710600954836111509190612682565b61115a9190612699565b9050600061116882846126bb565b90508484600301600082825461117e91906126bb565b9091555050600384015460000361119c5760068401805460ff191690555b6002805490850154604051637921219560e11b81526001600160a01b039092169163f242432a916111d591309133918b906004016126ce565b600060405180830381600087803b1580156111ef57600080fd5b505af1158015611203573d6000803e3d6000fd5b5050600a54604051600093506001600160a01b03909116915084908381818185875af1925050503d8060008114611256576040519150601f19603f3d011682016040523d82523d6000602084013e61125b565b606091505b50509050806112a25760405162461bcd60e51b8152602060048201526013602482015272119959481d1c985b9cd9995c8819985a5b1959606a1b60448201526064016107b5565b60018501546040516000916001600160a01b03169084908381818185875af1925050503d80600081146112f1576040519150601f19603f3d011682016040523d82523d6000602084013e6112f6565b606091505b505090508061133f5760405162461bcd60e51b815260206004820152601560248201527414d95b1b195c881c185e5b595b9d0819985a5b1959605a1b60448201526064016107b5565b843411156113b85760003361135487346126bb565b604051600081818185875af1925050503d8060008114611390576040519150601f19603f3d011682016040523d82523d6000602084013e611395565b606091505b50509050806113b65760405162461bcd60e51b81526004016107b590612706565b505b84600c60008282546113ca919061272d565b9091555050600d80549060006113df83612740565b90915550506001860154600287015460408051918252602082018a905281018790526001600160a01b039091169033908a907ffd0d3abb22e8985045e9f65a09eb4c96ea93039c7db51e5199b7d1d1f49dfc2f9060600160405180910390a450505050505061144d60018055565b5050565b6000918252602082815260408084206001600160a01b0393909316845291905290205460ff1690565b600061148461209f565b600083116114c95760405162461bcd60e51b81526020600482015260126024820152710416d6f756e74206d757374206265203e20360741b60448201526064016107b5565b6000821161150d5760405162461bcd60e51b815260206004820152601160248201527005072696365206d757374206265203e203607c1b60448201526064016107b5565b60006115198484612682565b9050803410156115625760405162461bcd60e51b8152602060048201526014602482015273125b9cdd59999a58da595b9d0819195c1bdcda5d60621b60448201526064016107b5565b6004805490600061157283612740565b9091555050600480546040805160e0810182528281523360208083019182528284018b8152606084018b8152608085018b81524260a08701908152600160c0880181815260008b81526006978890529990992097518855955195870180546001600160a01b0319166001600160a01b039097169690961790955591516002860155516003850155519583019590955551600582015590519201805460ff191692151592909217909155348210156116945760003361163084346126bb565b604051600081818185875af1925050503d806000811461166c576040519150601f19603f3d011682016040523d82523d6000602084013e611671565b606091505b50509050806116925760405162461bcd60e51b81526004016107b590612706565b505b60408051868152602081018690528791339184917f92669f7499828c9972b3a5b6c0b107ca011f143600fd7b32517024d4a3d7ab2891015b60405180910390a49150506116e060018055565b9392505050565b60006116f161209f565b600083116117365760405162461bcd60e51b81526020600482015260126024820152710416d6f756e74206d757374206265203e20360741b60448201526064016107b5565b600b548210156117785760405162461bcd60e51b815260206004820152600d60248201526c507269636520746f6f206c6f7760981b60448201526064016107b5565b600254604051627eeac760e11b8152336004820152602481018690526000916001600160a01b03169062fdd58e90604401602060405180830381865afa1580156117c6573d6000803e3d6000fd5b505050506040513d601f19601f820116820180604052508101906117ea9190612625565b90508381101561180c5760405162461bcd60e51b81526004016107b59061263e565b600254604051637921219560e11b81526001600160a01b039091169063f242432a9061184290339030908a908a906004016126ce565b600060405180830381600087803b15801561185c57600080fd5b505af1158015611870573d6000803e3d6000fd5b50506003805492509050600061188583612740565b9091555050600380546040805160e0810182528281523360208083018281528385018c8152606085018c8152608086018c81524260a08801908152600160c0890181815260008c81526005808a528c82209b518c5597518b840180546001600160a01b0319166001600160a01b03909216919091179055955160028b015593519b89019b909b5590516004880155519286019290925590516006909401805460ff1916941515949094179093558a83526007815283832080548088018255908452818420018590558183526008815283832080549687018155835291829020909401839055815188815290810187905291928892909184917fa3941cfa07eecf2734875ab71cea0e47395be644da6e17b039a7e29efba74ef991016116cc565b6000818152600760205260408120600019825b8254811015611a2e576000600560008584815481106119d9576119d9612785565b600091825260208083209091015483528201929092526040019020600681015490915060ff168015611a0e5750828160040154105b15611a1b57806004015492505b5080611a2681612740565b9150506119b8565b506000198114611a3e5780611a41565b60005b949350505050565b60008051602061279c833981519152611a6181612095565b50600b55565b600082815260208190526040902060010154611a8281612095565b610d58838361215b565b6000818152600760205260408120606091805b8254811015611b055760056000848381548110611abe57611abe612785565b6000918252602080832090910154835282019290925260400190206006015460ff1615611af35781611aef81612740565b9250505b80611afd81612740565b915050611a9f565b5060008167ffffffffffffffff811115611b2157611b21612352565b604051908082528060200260200182016040528015611b9d57816020015b611b8a6040518060e001604052806000815260200160006001600160a01b03168152602001600081526020016000815260200160008152602001600081526020016000151581525090565b815260200190600190039081611b3f5790505b5090506000805b8454811015611cb75760056000868381548110611bc357611bc3612785565b6000918252602080832090910154835282019290925260400190206006015460ff1615611ca55760056000868381548110611c0057611c00612785565b600091825260208083209091015483528281019390935260409182019020815160e0810183528154815260018201546001600160a01b0316938101939093526002810154918301919091526003810154606083015260048101546080830152600581015460a08301526006015460ff16151560c08201528351849084908110611c8b57611c8b612785565b60200260200101819052508180611ca190612740565b9250505b80611caf81612740565b915050611ba4565b509095945050505050565b60008051602061279c833981519152611cda81612095565b6001600160a01b038216611d245760405162461bcd60e51b8152602060048201526011602482015270125b9d985b1a59081c9958da5c1a595b9d607a1b60448201526064016107b5565b600a80546001600160a01b0319166001600160a01b0384169081179091556040519081527f7a7b5a0a132f9e0581eb8527f66eae9ee89c2a3e79d4ac7e41a1f1f4d48a7fc2906020016107ef565b611d7a61209f565b6000838152600560205260409020600681015460ff16611dac5760405162461bcd60e51b81526004016107b590612759565b60018101546001600160a01b03163314611df95760405162461bcd60e51b815260206004820152600e60248201526d2737ba103a34329039b2b63632b960911b60448201526064016107b5565b8215611e4957600b54831015611e415760405162461bcd60e51b815260206004820152600d60248201526c507269636520746f6f206c6f7760981b60448201526064016107b5565b600481018390555b600082118015611e5d575080600301548214155b1561201b578060030154821115611f91576000816003015483611e8091906126bb565b6002805490840154604051627eeac760e11b815233600482015260248101919091529192506000916001600160a01b039091169062fdd58e90604401602060405180830381865afa158015611ed9573d6000803e3d6000fd5b505050506040513d601f19601f82011682018060405250810190611efd9190612625565b905081811015611f1f5760405162461bcd60e51b81526004016107b59061263e565b6002805490840154604051637921219560e11b81526001600160a01b039092169163f242432a91611f58913391309188906004016126ce565b600060405180830381600087803b158015611f7257600080fd5b505af1158015611f86573d6000803e3d6000fd5b505050505050612013565b6000828260030154611fa391906126bb565b6002805490840154604051637921219560e11b81529293506001600160a01b039091169163f242432a91611fdf913091339187906004016126ce565b600060405180830381600087803b158015611ff957600080fd5b505af115801561200d573d6000803e3d6000fd5b50505050505b600381018290555b837ff7adc9a0380a940c6058d78194df6a9b9fa5bb431bbad15194913bb611f3f4f78260040154836003015460405161205e929190918252602082015260400190565b60405180910390a250610d2e60018055565b60006001600160e01b03198216630271189760e51b14806107295750610729826121c6565b610e9681336121fb565b6002600154036120c257604051633ee5aeb560e01b815260040160405180910390fd5b6002600155565b60006120d58383611451565b612153576000838152602081815260408083206001600160a01b03861684529091529020805460ff1916600117905561210b3390565b6001600160a01b0316826001600160a01b0316847f2f8788117e7eff1d82e926ec794901d17c78024a50270940304540a733656f0d60405160405180910390a4506001610729565b506000610729565b60006121678383611451565b15612153576000838152602081815260408083206001600160a01b0386168085529252808320805460ff1916905551339286917ff6391f5c32d9c69d2a47ea670b442974b53935d1edc7fd64eb21e047a839171b9190a4506001610729565b60006001600160e01b03198216637965db0b60e01b148061072957506301ffc9a760e01b6001600160e01b0319831614610729565b6122058282611451565b61144d5760405163e2517d3f60e01b81526001600160a01b0382166004820152602481018390526044016107b5565b60006020828403121561224657600080fd5b81356001600160e01b0319811681146116e057600080fd5b80356001600160a01b038116811461227557600080fd5b919050565b6000806040838503121561228d57600080fd5b6122968361225e565b946020939093013593505050565b6000602082840312156122b657600080fd5b5035919050565b6000602082840312156122cf57600080fd5b6116e08261225e565b6000806000606084860312156122ed57600080fd5b505081359360208301359350604090920135919050565b6000806040838503121561231757600080fd5b823591506123276020840161225e565b90509250929050565b6000806040838503121561234357600080fd5b50508035926020909101359150565b634e487b7160e01b600052604160045260246000fd5b604051601f8201601f1916810167ffffffffffffffff8111828210171561239157612391612352565b604052919050565b600082601f8301126123aa57600080fd5b8135602067ffffffffffffffff8211156123c6576123c6612352565b8160051b6123d5828201612368565b92835284810182019282810190878511156123ef57600080fd5b83870192505b8483101561240e578235825291830191908301906123f5565b979650505050505050565b600082601f83011261242a57600080fd5b813567ffffffffffffffff81111561244457612444612352565b612457601f8201601f1916602001612368565b81815284602083860101111561246c57600080fd5b816020850160208301376000918101602001919091529392505050565b600080600080600060a086880312156124a157600080fd5b6124aa8661225e565b94506124b86020870161225e565b9350604086013567ffffffffffffffff808211156124d557600080fd5b6124e189838a01612399565b945060608801359150808211156124f757600080fd5b61250389838a01612399565b9350608088013591508082111561251957600080fd5b5061252688828901612419565b9150509295509295909350565b602080825282518282018190526000919060409081850190868401855b828110156125b357815180518552868101516001600160a01b0316878601528581015186860152606080820151908601526080808201519086015260a0808201519086015260c09081015115159085015260e09093019290850190600101612550565b5091979650505050505050565b600080600080600060a086880312156125d857600080fd5b6125e18661225e565b94506125ef6020870161225e565b93506040860135925060608601359150608086013567ffffffffffffffff81111561261957600080fd5b61252688828901612419565b60006020828403121561263757600080fd5b5051919050565b602080825260149082015273496e73756666696369656e742062616c616e636560601b604082015260600190565b634e487b7160e01b600052601160045260246000fd5b80820281158282048414176107295761072961266c565b6000826126b657634e487b7160e01b600052601260045260246000fd5b500490565b818103818111156107295761072961266c565b6001600160a01b0394851681529290931660208301526040820152606081019190915260a06080820181905260009082015260c00190565b6020808252600d908201526c1499599d5b990819985a5b1959609a1b604082015260600190565b808201808211156107295761072961266c565b6000600182016127525761275261266c565b5060010190565b6020808252601290820152714c697374696e67206e6f742061637469766560701b604082015260600190565b634e487b7160e01b600052603260045260246000fdfea49807205ce4d355092ef5a8a18f56e8913cf4a201fbe287825b095693c21775a2646970667358221220de191b495d5d87c615054e68527e7be9e3435231f9d228df00d138fc826d7e7764736f6c63430008140033",
  "linkReferences": {},
  "deployedLinkReferences": {}
}