{
  "_format": "hh-sol-artifact-1",
  "contractName": "MusicToken",
  "sourceName": "src/MusicToken.sol",
  "abi": [
    {
      "inputs": [
        {
          "internalType": "string",
          "name": "baseUri",
          "type": "string"
        },
        {
          "internalType": "address",
          "name": "_feeRecipient",
          "type": "address"
        }
      ],
      "stateMutability": "nonpayable",
      "type": "constructor"
    },
    {
      "inputs": [],
      "name": "AccessControlBadConfirmation",
      "type": "error"
    },
    {
      "inputs": [
        {
          "internalType": "address",
          "name": "account",
          "type": "address"
        },
        {
          "internalType": "bytes32",
          "name": "neededRole",
          "type": "bytes32"
        }
      ],
      "name": "AccessControlUnauthorizedAccount",
      "type": "error"
    },
    {
      "inputs": [
        {
          "internalType": "address",
          "name": "sender",
          "type": "address"
        },
        {
          "internalType": "uint256",
          "name": "balance",
          "type": "uint256"
        },
        {
          "internalType": "uint256",
          "name": "needed",
          "type": "uint256"
        },
        {
          "internalType": "uint256",
          "name": "tokenId",
          "type": "uint256"
        }
      ],
      "name": "ERC1155InsufficientBalance",
      "type": "error"
    },
    {
      "inputs": [
        {
          "internalType": "address",
          "name": "approver",
          "type": "address"
        }
      ],
      "name": "ERC1155InvalidApprover",
      "type": "error"
    },
    {
      "inputs": [
        {
          "internalType": "uint256",
          "name": "idsLength",
          "type": "uint256"
        },
        {
          "internalType": "uint256",
          "name": "valuesLength",
          "type": "uint256"
        }
      ],
      "name": "ERC1155InvalidArrayLength",
      "type": "error"
    },
    {
      "inputs": [
        {
          "internalType": "address",
          "name": "operator",
          "type": "address"
        }
      ],
      "name": "ERC1155InvalidOperator",
      "type": "error"
    },
    {
      "inputs": [
        {
          "internalType": "address",
          "name": "receiver",
          "type": "address"
        }
      ],
      "name": "ERC1155InvalidReceiver",
      "type": "error"
    },
    {
      "inputs": [
        {
          "internalType": "address",
          "name": "sender",
          "type": "address"
        }
      ],
      "name": "ERC1155InvalidSender",
      "type": "error"
    },
    {
      "inputs": [
        {
          "internalType": "address",
          "name": "operator",
          "type": "address"
        },
        {
          "internalType": "address",
          "name": "owner",
          "type": "address"
        }
      ],
      "name": "ERC1155MissingApprovalForAll",
      "type": "error"
    },
    {
      "inputs": [],
      "name": "ReentrancyGuardReentrantCall",
      "type": "error"
    },
    {
      "anonymous": false,
      "inputs": [
        {
          "indexed": true,
          "internalType": "address",
          "name": "account",
          "type": "address"
        },
        {
          "indexed": true,
          "internalType": "address",
          "name": "operator",
          "type": "address"
        },
        {
          "indexed": false,
          "internalType": "bool",
          "name": "approved",
          "type": "bool"
        }
      ],
      "name": "ApprovalForAll",
      "type": "event"
    },
    {
      "anonymous": false,
      "inputs": [
        {
          "indexed": false,
          "internalType": "address",
          "name": "newRecipient",
          "type": "address"
        }
      ],
      "name": "FeeRecipientUpdated",
      "type": "event"
    },
    {
      "anonymous": false,
      "inputs": [
        {
          "indexed": false,
          "internalType": "uint256",
          "name": "newFee",
          "type": "uint256"
        }
      ],
      "name": "PlatformFeeUpdated",
      "type": "event"
    },
    {
      "anonymous": false,
      "inputs": [
        {
          "indexed": true,
          "internalType": "bytes32",
          "name": "role",
          "type": "bytes32"
        },
        {
          "indexed": true,
          "internalType": "bytes32",
          "name": "previousAdminRole",
          "type": "bytes32"
        },
        {
          "indexed": true,
          "internalType": "bytes32",
          "name": "newAdminRole",
          "type": "bytes32"
        }
      ],
      "name": "RoleAdminChanged",
      "type": "event"
    },
    {
      "anonymous": false,
      "inputs": [
        {
          "indexed": true,
          "internalType": "bytes32",
          "name": "role",
          "type": "bytes32"
        },
        {
          "indexed": true,
          "internalType": "address",
          "name": "account",
          "type": "address"
        },
        {
          "indexed": true,
          "internalType": "address",
          "name": "sender",
          "type": "address"
        }
      ],
      "name": "RoleGranted",
      "type": "event"
    },
    {
      "anonymous": false,
      "inputs": [
        {
          "indexed": true,
          "internalType": "bytes32",
          "name": "role",
          "type": "bytes32"
        },
        {
          "indexed": true,
          "internalType": "address",
          "name": "account",
          "type": "address"
        },
        {
          "indexed": true,
          "internalType": "address",
          "name": "sender",
          "type": "address"
        }
      ],
      "name": "RoleRevoked",
      "type": "event"
    },
    {
      "anonymous": false,
      "inputs": [
        {
          "indexed": true,
          "internalType": "uint256",
          "name": "trackId",
          "type": "uint256"
        },
        {
          "indexed": true,
          "internalType": "address",
          "name": "buyer",
          "type": "address"
        },
        {
          "indexed": false,
          "internalType": "uint256",
          "name": "amount",
          "type": "uint256"
        },
        {
          "indexed": false,
          "internalType": "uint256",
          "name": "totalCost",
          "type": "uint256"
        }
      ],
      "name": "TokensPurchased",
      "type": "event"
    },
    {
      "anonymous": false,
      "inputs": [
        {
          "indexed": true,
          "internalType": "uint256",
          "name": "trackId",
          "type": "uint256"
        },
        {
          "indexed": false,
          "internalType": "string",
          "name": "title",
          "type": "string"
        },
        {
          "indexed": false,
          "internalType": "string",
          "name": "artist",
          "type": "string"
        },
        {
          "indexed": false,
          "internalType": "string",
          "name": "isrc",
          "type": "string"
        },
        {
          "indexed": false,
          "internalType": "uint256",
          "name": "totalSupply",
          "type": "uint256"
        },
        {
          "indexed": false,
          "internalType": "uint256",
          "name": "pricePerToken",
          "type": "uint256"
        },
        {
          "indexed": false,
          "internalType": "address",
          "name": "artistWallet",
          "type": "address"
        }
      ],
      "name": "TrackCreated",
      "type": "event"
    },
    {
      "anonymous": false,
      "inputs": [
        {
          "indexed": true,
          "internalType": "uint256",
          "name": "trackId",
          "type": "uint256"
        },
        {
          "indexed": false,
          "internalType": "uint256",
          "name": "newPrice",
          "type": "uint256"
        },
        {
          "indexed": false,
          "internalType": "bool",
          "name": "isActive",
          "type": "bool"
        }
      ],
      "name": "TrackUpdated",
      "type": "event"
    },
    {
      "anonymous": false,
      "inputs": [
        {
          "indexed": true,
          "internalType": "address",
          "name": "operator",
          "type": "address"
        },
        {
          "indexed": true,
          "internalType": "address",
          "name": "from",
          "type": "address"
        },
        {
          "indexed": true,
          "internalType": "address",
          "name": "to",
          "type": "address"
        },
        {
          "indexed": false,
          "internalType": "uint256[]",
          "name": "ids",
          "type": "uint256[]"
        },
        {
          "indexed": false,
          "internalType": "uint256[]",
          "name": "values",
          "type": "uint256[]"
        }
      ],
      "name": "TransferBatch",
      "type": "event"
    },
    {
      "anonymous": false,
      "inputs": [
        {
          "indexed": true,
          "internalType": "address",
          "name": "operator",
          "type": "address"
        },
        {
          "indexed": true,
          "internalType": "address",
          "name": "from",
          "type": "address"
        },
        {
          "indexed": true,
          "internalType": "address",
          "name": "to",
          "type": "address"
        },
        {
          "indexed": false,
          "internalType": "uint256",
          "name": "id",
          "type": "uint256"
        },
        {
          "indexed": false,
          "internalType": "uint256",
          "name": "value",
          "type": "uint256"
        }
      ],
      "name": "TransferSingle",
      "type": "event"
    },
    {
      "anonymous": false,
      "inputs": [
        {
          "indexed": false,
          "internalType": "string",
          "name": "value",
          "type": "string"
        },
        {
          "indexed": true,
          "internalType": "uint256",
          "name": "id",
          "type": "uint256"
        }
      ],
      "name": "URI",
      "type": "event"
    },
    {
      "inputs": [],
      "name": "ADMIN_ROLE",
      "outputs": [
        {
          "internalType": "bytes32",
          "name": "",
          "type": "bytes32"
        }
      ],
      "stateMutability": "view",
      "type": "function"
    },
    {
      "inputs": [],
      "name": "DEFAULT_ADMIN_ROLE",
      "outputs": [
        {
          "internalType": "bytes32",
          "name": "",
          "type": "bytes32"
        }
      ],
      "stateMutability": "view",
      "type": "function"
    },
    {
      "inputs": [],
      "name": "MINTER_ROLE",
      "outputs": [
        {
          "internalType": "bytes32",
          "name": "",
          "type": "bytes32"
        }
      ],
      "stateMutability": "view",
      "type": "function"
    },
    {
      "inputs": [
        {
          "internalType": "address",
          "name": "account",
          "type": "address"
        },
        {
          "internalType": "uint256",
          "name": "id",
          "type": "uint256"
        }
      ],
      "name": "balanceOf",
      "outputs": [
        {
          "internalType": "uint256",
          "name": "",
          "type": "uint256"
        }
      ],
      "stateMutability": "view",
      "type": "function"
    },
    {
      "inputs": [
        {
          "internalType": "address[]",
          "name": "accounts",
          "type": "address[]"
        },
        {
          "internalType": "uint256[]",
          "name": "ids",
          "type": "uint256[]"
        }
      ],
      "name": "balanceOfBatch",
      "outputs": [
        {
          "internalType": "uint256[]",
          "name": "",
          "type": "uint256[]"
        }
      ],
      "stateMutability": "view",
      "type": "function"
    },
    {
      "inputs": [
        {
          "internalType": "address",
          "name": "account",
          "type": "address"
        },
        {
          "internalType": "uint256",
          "name": "id",
          "type": "uint256"
        },
        {
          "internalType": "uint256",
          "name": "value",
          "type": "uint256"
        }
      ],
      "name": "burn",
      "outputs": [],
      "stateMutability": "nonpayable",
      "type": "function"
    },
    {
      "inputs": [
        {
          "internalType": "address",
          "name": "account",
          "type": "address"
        },
        {
          "internalType": "uint256[]",
          "name": "ids",
          "type": "uint256[]"
        },
        {
          "internalType": "uint256[]",
          "name": "values",
          "type": "uint256[]"
        }
      ],
      "name": "burnBatch",
      "outputs": [],
      "stateMutability": "nonpayable",
      "type": "function"
    },
    {
      "inputs": [
        {
          "internalType": "string",
          "name": "title",
          "type": "string"
        },
        {
          "internalType": "string",
          "name": "artist",
          "type": "string"
        },
        {
          "internalType": "string",
          "name": "isrc",
          "type": "string"
        },
        {
          "internalType": "uint256",
          "name": "totalSupply",
          "type": "uint256"
        },
        {
          "internalType": "uint256",
          "name": "pricePerToken",
          "type": "uint256"
        },
        {
          "internalType": "uint256",
          "name": "royaltyPercentage",
          "type": "uint256"
        },
        {
          "internalType": "address",
          "name": "artistWallet",
          "type": "address"
        },
        {
          "internalType": "string",
          "name": "metadataUri",
          "type": "string"
        }
      ],
      "name": "createTrack",
      "outputs": [
        {
          "internalType": "uint256",
          "name": "",
          "type": "uint256"
        }
      ],
      "stateMutability": "nonpayable",
      "type": "function"
    },
    {
      "inputs": [
        {
          "internalType": "uint256",
          "name": "id",
          "type": "uint256"
        }
      ],
      "name": "exists",
      "outputs": [
        {
          "internalType": "bool",
          "name": "",
          "type": "bool"
        }
      ],
      "stateMutability": "view",
      "type": "function"
    },
    {
      "inputs": [],
      "name": "feeRecipient",
      "outputs": [
        {
          "internalType": "address",
          "name": "",
          "type": "address"
        }
      ],
      "stateMutability": "view",
      "type": "function"
    },
    {
      "inputs": [
        {
          "internalType": "uint256",
          "name": "trackId",
          "type": "uint256"
        }
      ],
      "name": "getAvailableTokens",
      "outputs": [
        {
          "internalType": "uint256",
          "name": "",
          "type": "uint256"
        }
      ],
      "stateMutability": "view",
      "type": "function"
    },
    {
      "inputs": [
        {
          "internalType": "bytes32",
          "name": "role",
          "type": "bytes32"
        }
      ],
      "name": "getRoleAdmin",
      "outputs": [
        {
          "internalType": "bytes32",
          "name": "",
          "type": "bytes32"
        }
      ],
      "stateMutability": "view",
      "type": "function"
    },
    {
      "inputs": [],
      "name": "getTotalTracks",
      "outputs": [
        {
          "internalType": "uint256",
          "name": "",
          "type": "uint256"
        }
      ],
      "stateMutability": "view",
      "type": "function"
    },
    {
      "inputs": [
        {
          "internalType": "uint256",
          "name": "trackId",
          "type": "uint256"
        }
      ],
      "name": "getTrackInfo",
      "outputs": [
        {
          "components": [
            {
              "internalType": "string",
              "name": "title",
              "type": "string"
            },
            {
              "internalType": "string",
              "name": "artist",
              "type": "string"
            },
            {
              "internalType": "string",
              "name": "isrc",
              "type": "string"
            },
            {
              "internalType": "uint256",
              "name": "totalSupply",
              "type": "uint256"
            },
            {
              "internalType": "uint256",
              "name": "pricePerToken",
              "type": "uint256"
            },
            {
              "internalType": "uint256",
              "name": "royaltyPercentage",
              "type": "uint256"
            },
            {
              "internalType": "address",
              "name": "artistWallet",
              "type": "address"
            },
            {
              "internalType": "bool",
              "name": "isActive",
              "type": "bool"
            },
            {
              "internalType": "uint256",
              "name": "createdAt",
              "type": "uint256"
            }
          ],
          "internalType": "struct MusicToken.TrackInfo",
          "name": "",
          "type": "tuple"
        }
      ],
      "stateMutability": "view",
      "type": "function"
    },
    {
      "inputs": [
        {
          "internalType": "bytes32",
          "name": "role",
          "type": "bytes32"
        },
        {
          "internalType": "address",
          "name": "account",
          "type": "address"
        }
      ],
      "name": "grantRole",
      "outputs": [],
      "stateMutability": "nonpayable",
      "type": "function"
    },
    {
      "inputs": [
        {
          "internalType": "bytes32",
          "name": "role",
          "type": "bytes32"
        },
        {
          "internalType": "address",
          "name": "account",
          "type": "address"
        }
      ],
      "name": "hasRole",
      "outputs": [
        {
          "internalType": "bool",
          "name": "",
          "type": "bool"
        }
      ],
      "stateMutability": "view",
      "type": "function"
    },
    {
      "inputs": [
        {
          "internalType": "address",
          "name": "account",
          "type": "address"
        },
        {
          "internalType": "address",
          "name": "operator",
          "type": "address"
        }
      ],
      "name": "isApprovedForAll",
      "outputs": [
        {
          "internalType": "bool",
          "name": "",
          "type": "bool"
        }
      ],
      "stateMutability": "view",
      "type": "function"
    },
    {
      "inputs": [
        {
          "internalType": "string",
          "name": "",
          "type": "string"
        }
      ],
      "name": "isrcToTrackId",
      "outputs": [
        {
          "internalType": "uint256",
          "name": "",
          "type": "uint256"
        }
      ],
      "stateMutability": "view",
      "type": "function"
    },
    {
      "inputs": [
        {
          "internalType": "address",
          "name": "",
          "type": "address"
        },
        {
          "internalType": "address",
          "name": "",
          "type": "address"
        },
        {
          "internalType": "uint256[]",
          "name": "",
          "type": "uint256[]"
        },
        {
          "internalType": "uint256[]",
          "name": "",
          "type": "uint256[]"
        },
        {
          "internalType": "bytes",
          "name": "",
          "type": "bytes"
        }
      ],
      "name": "onERC1155BatchReceived",
      "outputs": [
        {
          "internalType": "bytes4",
          "name": "",
          "type": "bytes4"
        }
      ],
      "stateMutability": "nonpayable",
      "type": "function"
    },
    {
      "inputs": [
        {
          "internalType": "address",
          "name": "",
          "type": "address"
        },
        {
          "internalType": "address",
          "name": "",
          "type": "address"
        },
        {
          "internalType": "uint256",
          "name": "",
          "type": "uint256"
        },
        {
          "internalType": "uint256",
          "name": "",
          "type": "uint256"
        },
        {
          "internalType": "bytes",
          "name": "",
          "type": "bytes"
        }
      ],
      "name": "onERC1155Received",
      "outputs": [
        {
          "internalType": "bytes4",
          "name": "",
          "type": "bytes4"
        }
      ],
      "stateMutability": "nonpayable",
      "type": "function"
    },
    {
      "inputs": [],
      "name": "platformFee",
      "outputs": [
        {
          "internalType": "uint256",
          "name": "",
          "type": "uint256"
        }
      ],
      "stateMutability": "view",
      "type": "function"
    },
    {
      "inputs": [
        {
          "internalType": "uint256",
          "name": "trackId",
          "type": "uint256"
        },
        {
          "internalType": "uint256",
          "name": "amount",
          "type": "uint256"
        }
      ],
      "name": "purchaseTokens",
      "outputs": [],
      "stateMutability": "payable",
      "type": "function"
    },
    {
      "inputs": [
        {
          "internalType": "bytes32",
          "name": "role",
          "type": "bytes32"
        },
        {
          "internalType": "address",
          "name": "callerConfirmation",
          "type": "address"
        }
      ],
      "name": "renounceRole",
      "outputs": [],
      "stateMutability": "nonpayable",
      "type": "function"
    },
    {
      "inputs": [
        {
          "internalType": "bytes32",
          "name": "role",
          "type": "bytes32"
        },
        {
          "internalType": "address",
          "name": "account",
          "type": "address"
        }
      ],
      "name": "revokeRole",
      "outputs": [],
      "stateMutability": "nonpayable",
      "type": "function"
    },
    {
      "inputs": [
        {
          "internalType": "address",
          "name": "from",
          "type": "address"
        },
        {
          "internalType": "address",
          "name": "to",
          "type": "address"
        },
        {
          "internalType": "uint256[]",
          "name": "ids",
          "type": "uint256[]"
        },
        {
          "internalType": "uint256[]",
          "name": "values",
          "type": "uint256[]"
        },
        {
          "internalType": "bytes",
          "name": "data",
          "type": "bytes"
        }
      ],
      "name": "safeBatchTransferFrom",
      "outputs": [],
      "stateMutability": "nonpayable",
      "type": "function"
    },
    {
      "inputs": [
        {
          "internalType": "address",
          "name": "from",
          "type": "address"
        },
        {
          "internalType": "address",
          "name": "to",
          "type": "address"
        },
        {
          "internalType": "uint256",
          "name": "id",
          "type": "uint256"
        },
        {
          "internalType": "uint256",
          "name": "value",
          "type": "uint256"
        },
        {
          "internalType": "bytes",
          "name": "data",
          "type": "bytes"
        }
      ],
      "name": "safeTransferFrom",
      "outputs": [],
      "stateMutability": "nonpayable",
      "type": "function"
    },
    {
      "inputs": [
        {
          "internalType": "address",
          "name": "operator",
          "type": "address"
        },
        {
          "internalType": "bool",
          "name": "approved",
          "type": "bool"
        }
      ],
      "name": "setApprovalForAll",
      "outputs": [],
      "stateMutability": "nonpayable",
      "type": "function"
    },
    {
      "inputs": [
        {
          "internalType": "address",
          "name": "newRecipient",
          "type": "address"
        }
      ],
      "name": "setFeeRecipient",
      "outputs": [],
      "stateMutability": "nonpayable",
      "type": "function"
    },
    {
      "inputs": [
        {
          "internalType": "uint256",
          "name": "newFee",
          "type": "uint256"
        }
      ],
      "name": "setPlatformFee",
      "outputs": [],
      "stateMutability": "nonpayable",
      "type": "function"
    },
    {
      "inputs": [
        {
          "internalType": "uint256",
          "name": "tokenId",
          "type": "uint256"
        },
        {
          "internalType": "string",
          "name": "newUri",
          "type": "string"
        }
      ],
      "name": "setTokenURI",
      "outputs": [],
      "stateMutability": "nonpayable",
      "type": "function"
    },
    {
      "inputs": [
        {
          "internalType": "bytes4",
          "name": "interfaceId",
          "type": "bytes4"
        }
      ],
      "name": "supportsInterface",
      "outputs": [
        {
          "internalType": "bool",
          "name": "",
          "type": "bool"
        }
      ],
      "stateMutability": "view",
      "type": "function"
    },
    {
      "inputs": [],
      "name": "totalSupply",
      "outputs": [
        {
          "internalType": "uint256",
          "name": "",
          "type": "uint256"
        }
      ],
      "stateMutability": "view",
      "type": "function"
    },
    {
      "inputs": [
        {
          "internalType": "uint256",
          "name": "id",
          "type": "uint256"
        }
      ],
      "name": "totalSupply",
      "outputs": [
        {
          "internalType": "uint256",
          "name": "",
          "type": "uint256"
        }
      ],
      "stateMutability": "view",
      "type": "function"
    },
    {
      "inputs": [
        {
          "internalType": "uint256",
          "name": "",
          "type": "uint256"
        }
      ],
      "name": "tracks",
      "outputs": [
        {
          "internalType": "string",
          "name": "title",
          "type": "string"
        },
        {
          "internalType": "string",
          "name": "artist",
          "type": "string"
        },
        {
          "internalType": "string",
          "name": "isrc",
          "type": "string"
        },
        {
          "internalType": "uint256",
          "name": "totalSupply",
          "type": "uint256"
        },
        {
          "internalType": "uint256",
          "name": "pricePerToken",
          "type": "uint256"
        },
        {
          "internalType": "uint256",
          "name": "royaltyPercentage",
          "type": "uint256"
        },
        {
          "internalType": "address",
          "name": "artistWallet",
          "type": "address"
        },
        {
          "internalType": "bool",
          "name": "isActive",
          "type": "bool"
        },
        {
          "internalType": "uint256",
          "name": "createdAt",
          "type": "uint256"
        }
      ],
      "stateMutability": "view",
      "type": "function"
    },
    {
      "inputs": [
        {
          "internalType": "uint256",
          "name": "trackId",
          "type": "uint256"
        },
        {
          "internalType": "uint256",
          "name": "newPrice",
          "type": "uint256"
        },
        {
          "internalType": "bool",
          "name": "isActive",
          "type": "bool"
        }
      ],
      "name": "updateTrack",
      "outputs": [],
      "stateMutability": "nonpayable",
      "type": "function"
    },
    {
      "inputs": [
        {
          "internalType": "uint256",
          "name": "tokenId",
          "type": "uint256"
        }
      ],
      "name": "uri",
      "outputs": [
        {
          "internalType": "string",
          "name": "",
          "type": "string"
        }
      ],
      "stateMutability": "view",
      "type": "function"
    }
  ],
  "bytecode": "0x608060405260fa600b553480156200001657600080fd5b50604051620037123803806200371283398101604081905262000039916200022d565b81620000458162000135565b5060016006556001600160a01b038116620000a65760405162461bcd60e51b815260206004820152601560248201527f496e76616c69642066656520726563697069656e740000000000000000000000604482015260640160405180910390fd5b620000b360003362000147565b50620000e07fa49807205ce4d355092ef5a8a18f56e8913cf4a201fbe287825b095693c217753362000147565b506200010d7f9f2df0fed2c77648de5860a4cc508cd0818c85b8b8a1ab4ceeef8d981c8956a63362000147565b50600c80546001600160a01b0319166001600160a01b03929092169190911790555062000470565b6002620001438282620003a4565b5050565b60008281526005602090815260408083206001600160a01b038516845290915281205460ff16620001f05760008381526005602090815260408083206001600160a01b03861684529091529020805460ff19166001179055620001a73390565b6001600160a01b0316826001600160a01b0316847f2f8788117e7eff1d82e926ec794901d17c78024a50270940304540a733656f0d60405160405180910390a4506001620001f4565b5060005b92915050565b634e487b7160e01b600052604160045260246000fd5b80516001600160a01b03811681146200022857600080fd5b919050565b600080604083850312156200024157600080fd5b82516001600160401b03808211156200025957600080fd5b818501915085601f8301126200026e57600080fd5b815181811115620002835762000283620001fa565b604051601f8201601f19908116603f01168101908382118183101715620002ae57620002ae620001fa565b81604052828152602093508884848701011115620002cb57600080fd5b600091505b82821015620002ef5784820184015181830185015290830190620002d0565b60008484830101528096505050506200030a81860162000210565b925050509250929050565b600181811c908216806200032a57607f821691505b6020821081036200034b57634e487b7160e01b600052602260045260246000fd5b50919050565b601f8211156200039f57600081815260208120601f850160051c810160208610156200037a5750805b601f850160051c820191505b818110156200039b5782815560010162000386565b5050505b505050565b81516001600160401b03811115620003c057620003c0620001fa565b620003d881620003d1845462000315565b8462000351565b602080601f831160018114620004105760008415620003f75750858301515b600019600386901b1c1916600185901b1785556200039b565b600085815260208120601f198616915b82811015620004415788860151825594840194600190910190840162000420565b5085821015620004605787850151600019600388901b60f8161c191681555b5050505050600190811b01905550565b61329280620004806000396000f3fe60806040526004361061020e5760003560e01c80638bf0af3e11610118578063bf0c4bf1116100a0578063e74b981b1161006f578063e74b981b146106b3578063e985e9c5146106d3578063f23a6e61146106f3578063f242432a1461071f578063f5298aca1461073f57600080fd5b8063bf0c4bf11461062a578063d53913931461063f578063d547741f14610673578063dee0776b1461069357600080fd5b8063a217fddf116100e7578063a217fddf1461054e578063a22cb46514610563578063a2e3458614610583578063bc197c81146105b8578063bd85b039146105fd57600080fd5b80638bf0af3e146104c35780639187cb03146104d657806391d14854146104f6578063a0f030b41461051657600080fd5b80632eb2c2d61161019b5780634e1273f41161016a5780634e1273f4146103f85780634f558e79146104255780636b20c4541461045457806375b238fc1461047457806378ae02ee1461049657600080fd5b80632eb2c2d6146103605780632f2ff15d1461038057806336568abe146103a057806346904840146103c057600080fd5b806312e8e2c3116101e257806312e8e2c3146102c5578063162094c4146102e557806318160ddd14610305578063248a9ca31461031a57806326232a2e1461034a57600080fd5b8062fdd58e1461021357806301ffc9a7146102465780630e89341c1461027657806312ac2ab9146102a3575b600080fd5b34801561021f57600080fd5b5061023361022e36600461263f565b61075f565b6040519081526020015b60405180910390f35b34801561025257600080fd5b5061026661026136600461267f565b610787565b604051901515815260200161023d565b34801561028257600080fd5b506102966102913660046126a3565b610792565b60405161023d919061270c565b3480156102af57600080fd5b506102c36102be36600461272f565b61087a565b005b3480156102d157600080fd5b506102c36102e03660046126a3565b610973565b3480156102f157600080fd5b506102c3610300366004612819565b610a09565b34801561031157600080fd5b50600454610233565b34801561032657600080fd5b506102336103353660046126a3565b60009081526005602052604090206001015490565b34801561035657600080fd5b50610233600b5481565b34801561036c57600080fd5b506102c361037b3660046128ed565b610a3f565b34801561038c57600080fd5b506102c361039b366004612996565b610aa6565b3480156103ac57600080fd5b506102c36103bb366004612996565b610acb565b3480156103cc57600080fd5b50600c546103e0906001600160a01b031681565b6040516001600160a01b03909116815260200161023d565b34801561040457600080fd5b506104186104133660046129c2565b610b03565b60405161023d9190612ab2565b34801561043157600080fd5b506102666104403660046126a3565b600090815260036020526040902054151590565b34801561046057600080fd5b506102c361046f366004612ac5565b610bd7565b34801561048057600080fd5b5061023360008051602061323d83398151915281565b3480156104a257600080fd5b506104b66104b13660046126a3565b610c36565b60405161023d9190612b38565b6102c36104d1366004612bf5565b610eb3565b3480156104e257600080fd5b506102336104f13660046126a3565b61127f565b34801561050257600080fd5b50610266610511366004612996565b61128b565b34801561052257600080fd5b50610233610531366004612c17565b8051602081830181018051600a8252928201919093012091525481565b34801561055a57600080fd5b50610233600081565b34801561056f57600080fd5b506102c361057e366004612c53565b6112b6565b34801561058f57600080fd5b506105a361059e3660046126a3565b6112c1565b60405161023d99989796959493929190612c7d565b3480156105c457600080fd5b506105e46105d33660046128ed565b63bc197c8160e01b95945050505050565b6040516001600160e01b0319909116815260200161023d565b34801561060957600080fd5b506102336106183660046126a3565b60009081526003602052604090205490565b34801561063657600080fd5b50600754610233565b34801561064b57600080fd5b506102337f9f2df0fed2c77648de5860a4cc508cd0818c85b8b8a1ab4ceeef8d981c8956a681565b34801561067f57600080fd5b506102c361068e366004612996565b6114b1565b34801561069f57600080fd5b506102336106ae366004612cf9565b6114d6565b3480156106bf57600080fd5b506102c36106ce366004612dd3565b61188b565b3480156106df57600080fd5b506102666106ee366004612dee565b61193b565b3480156106ff57600080fd5b506105e461070e366004612e18565b63f23a6e6160e01b95945050505050565b34801561072b57600080fd5b506102c361073a366004612e18565b611969565b34801561074b57600080fd5b506102c361075a366004612e7c565b6119c8565b6000818152602081815260408083206001600160a01b03861684529091529020545b92915050565b6000610781826119fe565b6000818152600960205260408120805460609291906107b090612eaf565b80601f01602080910402602001604051908101604052809291908181526020018280546107dc90612eaf565b80156108295780601f106107fe57610100808354040283529160200191610829565b820191906000526020600020905b81548152906001019060200180831161080c57829003601f168201915b505050505090506000815111156108405792915050565b61084983611a23565b61085284611ab7565b604051602001610863929190612ee9565b604051602081830303815290604052915050919050565b60008051602061323d83398151915261089281611b49565b6000848152600860205260409020600701546108ec5760405162461bcd60e51b8152602060048201526014602482015273151c9858dac8191bd95cc81b9bdd08195e1a5cdd60621b60448201526064015b60405180910390fd5b82156109075760008481526008602052604090206004018390555b600084815260086020908152604091829020600601805460ff60a01b1916600160a01b8615159081029190911790915582518681529182015285917f187eebd6c99207f10084b9728cf028c69d5cd9d215c6388a045dad03cd2b805d910160405180910390a250505050565b60008051602061323d83398151915261098b81611b49565b6103e88211156109cc5760405162461bcd60e51b815260206004820152600c60248201526b08ccaca40e8dede40d0d2ced60a31b60448201526064016108e3565b600b8290556040518281527f45610d581145924dd7090a5017e5f2b1d6f42213bb2e95707ff86846bbfcb1ca906020015b60405180910390a15050565b60008051602061323d833981519152610a2181611b49565b6000838152600960205260409020610a398382612f6e565b50505050565b336001600160a01b0386168114801590610a605750610a5e868261193b565b155b15610a915760405163711bec9160e11b81526001600160a01b038083166004830152871660248201526044016108e3565b610a9e8686868686611b56565b505050505050565b600082815260056020526040902060010154610ac181611b49565b610a398383611bbd565b6001600160a01b0381163314610af45760405163334bd91960e11b815260040160405180910390fd5b610afe8282611c51565b505050565b60608151835114610b345781518351604051635b05999160e01b8152600481019290925260248201526044016108e3565b600083516001600160401b03811115610b4f57610b4f612764565b604051908082528060200260200182016040528015610b78578160200160208202803683370190505b50905060005b8451811015610bcf57602080820286010151610ba29060208084028701015161075f565b828281518110610bb457610bb461302d565b6020908102919091010152610bc881613059565b9050610b7e565b509392505050565b6001600160a01b0383163314801590610bf75750610bf5833361193b565b155b15610c2b57335b60405163711bec9160e11b81526001600160a01b03918216600482015290841660248201526044016108e3565b610afe838383611cbe565b610c9060405180610120016040528060608152602001606081526020016060815260200160008152602001600081526020016000815260200160006001600160a01b03168152602001600015158152602001600081525090565b6000828152600860205260409081902081516101208101909252805482908290610cb990612eaf565b80601f0160208091040260200160405190810160405280929190818152602001828054610ce590612eaf565b8015610d325780601f10610d0757610100808354040283529160200191610d32565b820191906000526020600020905b815481529060010190602001808311610d1557829003601f168201915b50505050508152602001600182018054610d4b90612eaf565b80601f0160208091040260200160405190810160405280929190818152602001828054610d7790612eaf565b8015610dc45780601f10610d9957610100808354040283529160200191610dc4565b820191906000526020600020905b815481529060010190602001808311610da757829003601f168201915b50505050508152602001600282018054610ddd90612eaf565b80601f0160208091040260200160405190810160405280929190818152602001828054610e0990612eaf565b8015610e565780601f10610e2b57610100808354040283529160200191610e56565b820191906000526020600020905b815481529060010190602001808311610e3957829003601f168201915b505050918352505060038201546020820152600482015460408201526005820154606082015260068201546001600160a01b0381166080830152600160a01b900460ff16151560a082015260079091015460c09091015292915050565b610ebb611d04565b60008281526008602052604090206006810154600160a01b900460ff16610f175760405162461bcd60e51b815260206004820152601060248201526f547261636b206e6f742061637469766560801b60448201526064016108e3565b60008211610f5c5760405162461bcd60e51b81526020600482015260126024820152710416d6f756e74206d757374206265203e20360741b60448201526064016108e3565b6000610f68308561075f565b905082811015610fba5760405162461bcd60e51b815260206004820152601d60248201527f496e73756666696369656e7420746f6b656e7320617661696c61626c6500000060448201526064016108e3565b6000838360040154610fcc9190613072565b9050803410156110155760405162461bcd60e51b8152602060048201526014602482015273125b9cdd59999a58da595b9d081c185e5b595b9d60621b60448201526064016108e3565b6000612710600b54836110289190613072565b6110329190613089565b9050600061104082846130ab565b905061105e3033898960405180602001604052806000815250611d2e565b600c546040516000916001600160a01b03169084908381818185875af1925050503d80600081146110ab576040519150601f19603f3d011682016040523d82523d6000602084013e6110b0565b606091505b50509050806110f75760405162461bcd60e51b8152602060048201526013602482015272119959481d1c985b9cd9995c8819985a5b1959606a1b60448201526064016108e3565b60068601546040516000916001600160a01b03169084908381818185875af1925050503d8060008114611146576040519150601f19603f3d011682016040523d82523d6000602084013e61114b565b606091505b50509050806111945760405162461bcd60e51b8152602060048201526015602482015274105c9d1a5cdd081c185e5b595b9d0819985a5b1959605a1b60448201526064016108e3565b8434111561122d576000336111a987346130ab565b604051600081818185875af1925050503d80600081146111e5576040519150601f19603f3d011682016040523d82523d6000602084013e6111ea565b606091505b505090508061122b5760405162461bcd60e51b815260206004820152600d60248201526c1499599d5b990819985a5b1959609a1b60448201526064016108e3565b505b604080518981526020810187905233918b917fe8d7e55108ae7ddb60173461d2950c7a8e22a7ac7f442825564fe84c8c6f9a38910160405180910390a35050505050505061127b6001600655565b5050565b6000610781308361075f565b60009182526005602090815260408084206001600160a01b0393909316845291905290205460ff1690565b61127b338383611dbc565b6008602052600090815260409020805481906112dc90612eaf565b80601f016020809104026020016040519081016040528092919081815260200182805461130890612eaf565b80156113555780601f1061132a57610100808354040283529160200191611355565b820191906000526020600020905b81548152906001019060200180831161133857829003601f168201915b50505050509080600101805461136a90612eaf565b80601f016020809104026020016040519081016040528092919081815260200182805461139690612eaf565b80156113e35780601f106113b8576101008083540402835291602001916113e3565b820191906000526020600020905b8154815290600101906020018083116113c657829003601f168201915b5050505050908060020180546113f890612eaf565b80601f016020809104026020016040519081016040528092919081815260200182805461142490612eaf565b80156114715780601f1061144657610100808354040283529160200191611471565b820191906000526020600020905b81548152906001019060200180831161145457829003601f168201915b50505060038401546004850154600586015460068701546007909701549596929591945092506001600160a01b0382169160ff600160a01b909104169089565b6000828152600560205260409020600101546114cc81611b49565b610a398383611c51565b60007f9f2df0fed2c77648de5860a4cc508cd0818c85b8b8a1ab4ceeef8d981c8956a661150281611b49565b60008851116115435760405162461bcd60e51b815260206004820152600d60248201526c1254d490c81c995c5d5a5c9959609a1b60448201526064016108e3565b600a8860405161155391906130be565b9081526020016040518091039020546000146115a85760405162461bcd60e51b8152602060048201526014602482015273547261636b20616c72656164792065786973747360601b60448201526064016108e3565b600087116115ed5760405162461bcd60e51b81526020600482015260126024820152710537570706c79206d757374206265203e20360741b60448201526064016108e3565b600086116116315760405162461bcd60e51b815260206004820152601160248201527005072696365206d757374206265203e203607c1b60448201526064016108e3565b6127108511156116835760405162461bcd60e51b815260206004820152601a60248201527f496e76616c696420726f79616c74792070657263656e7461676500000000000060448201526064016108e3565b6001600160a01b0384166116d15760405162461bcd60e51b8152602060048201526015602482015274125b9d985b1a5908185c9d1a5cdd081dd85b1b195d605a1b60448201526064016108e3565b600780549060006116e183613059565b909155505060075460408051610120810182528c815260208082018d90528183018c9052606082018b9052608082018a905260a082018990526001600160a01b03881660c0830152600160e0830152426101008301526000848152600890915291909120815181906117539082612f6e565b50602082015160018201906117689082612f6e565b506040820151600282019061177d9082612f6e565b50606082015160038201556080820151600482015560a0820151600582015560c082015160068201805460e08501511515600160a01b026001600160a81b03199091166001600160a01b0390931692909217919091179055610100909101516007909101556040518190600a906117f5908c906130be565b908152604080516020928190038301902092909255600083815260099091522061181f8582612f6e565b5061183b30828a60405180602001604052806000815250611e52565b807f07a44ba16b5185badc58d93e8f7d7ab04164aa0f05b82ac73e5ecac4d3c011c18c8c8c8c8c8b604051611875969594939291906130da565b60405180910390a29a9950505050505050505050565b60008051602061323d8339815191526118a381611b49565b6001600160a01b0382166118ed5760405162461bcd60e51b8152602060048201526011602482015270125b9d985b1a59081c9958da5c1a595b9d607a1b60448201526064016108e3565b600c80546001600160a01b0319166001600160a01b0384169081179091556040519081527f7a7b5a0a132f9e0581eb8527f66eae9ee89c2a3e79d4ac7e41a1f1f4d48a7fc2906020016109fd565b6001600160a01b03918216600090815260016020908152604080832093909416825291909152205460ff1690565b336001600160a01b038616811480159061198a5750611988868261193b565b155b156119bb5760405163711bec9160e11b81526001600160a01b038083166004830152871660248201526044016108e3565b610a9e8686868686611d2e565b6001600160a01b03831633148015906119e857506119e6833361193b565b155b156119f35733610bfe565b610afe838383611eaf565b60006001600160e01b03198216637965db0b60e01b1480610781575061078182611f17565b606060028054611a3290612eaf565b80601f0160208091040260200160405190810160405280929190818152602001828054611a5e90612eaf565b8015611aab5780601f10611a8057610100808354040283529160200191611aab565b820191906000526020600020905b815481529060010190602001808311611a8e57829003601f168201915b50505050509050919050565b60606000611ac483611f3c565b60010190506000816001600160401b03811115611ae357611ae3612764565b6040519080825280601f01601f191660200182016040528015611b0d576020820181803683370190505b5090508181016020015b600019016f181899199a1a9b1b9c1cb0b131b232b360811b600a86061a8153600a8504945084611b1757509392505050565b611b538133612014565b50565b6001600160a01b038416611b8057604051632bfa23e760e11b8152600060048201526024016108e3565b6001600160a01b038516611ba957604051626a0d4560e21b8152600060048201526024016108e3565b611bb6858585858561204d565b5050505050565b6000611bc9838361128b565b611c495760008381526005602090815260408083206001600160a01b03861684529091529020805460ff19166001179055611c013390565b6001600160a01b0316826001600160a01b0316847f2f8788117e7eff1d82e926ec794901d17c78024a50270940304540a733656f0d60405160405180910390a4506001610781565b506000610781565b6000611c5d838361128b565b15611c495760008381526005602090815260408083206001600160a01b0386168085529252808320805460ff1916905551339286917ff6391f5c32d9c69d2a47ea670b442974b53935d1edc7fd64eb21e047a839171b9190a4506001610781565b6001600160a01b038316611ce757604051626a0d4560e21b8152600060048201526024016108e3565b610afe83600084846040518060200160405280600081525061204d565b600260065403611d2757604051633ee5aeb560e01b815260040160405180910390fd5b6002600655565b6001600160a01b038416611d5857604051632bfa23e760e11b8152600060048201526024016108e3565b6001600160a01b038516611d8157604051626a0d4560e21b8152600060048201526024016108e3565b60408051600180825260208201869052818301908152606082018590526080820190925290611db3878784848761204d565b50505050505050565b6001600160a01b038216611de55760405162ced3e160e81b8152600060048201526024016108e3565b6001600160a01b03838116600081815260016020908152604080832094871680845294825291829020805460ff191686151590811790915591519182527f17307eab39ab6107e8899845ad3d59bd9653f200f220920489ca2b5937696c31910160405180910390a3505050565b6001600160a01b038416611e7c57604051632bfa23e760e11b8152600060048201526024016108e3565b60408051600180825260208201869052818301908152606082018590526080820190925290610a9e60008784848761204d565b6001600160a01b038316611ed857604051626a0d4560e21b8152600060048201526024016108e3565b604080516001808252602082018590528183019081526060820184905260a08201909252600060808201818152919291611bb69187918590859061204d565b60006001600160e01b03198216630271189760e51b14806107815750610781826120a0565b60008072184f03e93ff9f4daa797ed6e38ed64bf6a1f0160401b8310611f7b5772184f03e93ff9f4daa797ed6e38ed64bf6a1f0160401b830492506040015b6d04ee2d6d415b85acef81000000008310611fa7576d04ee2d6d415b85acef8100000000830492506020015b662386f26fc100008310611fc557662386f26fc10000830492506010015b6305f5e1008310611fdd576305f5e100830492506008015b6127108310611ff157612710830492506004015b60648310612003576064830492506002015b600a83106107815760010192915050565b61201e828261128b565b61127b5760405163e2517d3f60e01b81526001600160a01b0382166004820152602481018390526044016108e3565b612059858585856120f0565b6001600160a01b03841615611bb65782513390600103612092576020848101519084015161208b8389898585896120fc565b5050610a9e565b610a9e818787878787612220565b60006001600160e01b03198216636cdb3d1360e11b14806120d157506001600160e01b031982166303a24d0760e21b145b8061078157506301ffc9a760e01b6001600160e01b0319831614610781565b610a3984848484612309565b6001600160a01b0384163b15610a9e5760405163f23a6e6160e01b81526001600160a01b0385169063f23a6e6190612140908990899088908890889060040161313b565b6020604051808303816000875af192505050801561217b575060408051601f3d908101601f1916820190925261217891810190613180565b60015b6121e4573d8080156121a9576040519150601f19603f3d011682016040523d82523d6000602084013e6121ae565b606091505b5080516000036121dc57604051632bfa23e760e11b81526001600160a01b03861660048201526024016108e3565b805160208201fd5b6001600160e01b0319811663f23a6e6160e01b14611db357604051632bfa23e760e11b81526001600160a01b03861660048201526024016108e3565b6001600160a01b0384163b15610a9e5760405163bc197c8160e01b81526001600160a01b0385169063bc197c8190612264908990899088908890889060040161319d565b6020604051808303816000875af192505050801561229f575060408051601f3d908101601f1916820190925261229c91810190613180565b60015b6122cd573d8080156121a9576040519150601f19603f3d011682016040523d82523d6000602084013e6121ae565b6001600160e01b0319811663bc197c8160e01b14611db357604051632bfa23e760e11b81526001600160a01b03861660048201526024016108e3565b61231584848484612406565b6001600160a01b03841661239e576000805b835181101561238457602081810284810182015190860182015160009081526003909252604082208054919283926123609084906131fb565b90915550612370905081846131fb565b9250508061237d90613059565b9050612327565b50806004600082825461239791906131fb565b9091555050505b6001600160a01b038316610a39576000805b83518110156123f55760208181028481018201519086018201516000908152600390925260409091208054829003905591909101906123ee81613059565b90506123b0565b506004805491909103905550505050565b80518251146124355781518151604051635b05999160e01b8152600481019290925260248201526044016108e3565b3360005b8351811015612544576020818102858101820151908501909101516001600160a01b038816156124ec576000828152602081815260408083206001600160a01b038c168452909152902054818110156124c5576040516303dee4c560e01b81526001600160a01b038a1660048201526024810182905260448101839052606481018490526084016108e3565b6000838152602081815260408083206001600160a01b038d16845290915290209082900390555b6001600160a01b03871615612531576000828152602081815260408083206001600160a01b038b1684529091528120805483929061252b9084906131fb565b90915550505b50508061253d90613059565b9050612439565b5082516001036125c55760208301516000906020840151909150856001600160a01b0316876001600160a01b0316846001600160a01b03167fc3d58168c5ae7397731d063d5bbf3d657854427343f4c083240f7aacaa2d0f6285856040516125b6929190918252602082015260400190565b60405180910390a45050611bb6565b836001600160a01b0316856001600160a01b0316826001600160a01b03167f4a39dc06d4c0dbc64b70af90fd698a233a518aa5d07e595d983b8c0526c8f7fb868660405161261492919061320e565b60405180910390a45050505050565b80356001600160a01b038116811461263a57600080fd5b919050565b6000806040838503121561265257600080fd5b61265b83612623565b946020939093013593505050565b6001600160e01b031981168114611b5357600080fd5b60006020828403121561269157600080fd5b813561269c81612669565b9392505050565b6000602082840312156126b557600080fd5b5035919050565b60005b838110156126d75781810151838201526020016126bf565b50506000910152565b600081518084526126f88160208601602086016126bc565b601f01601f19169290920160200192915050565b60208152600061269c60208301846126e0565b8035801515811461263a57600080fd5b60008060006060848603121561274457600080fd5b833592506020840135915061275b6040850161271f565b90509250925092565b634e487b7160e01b600052604160045260246000fd5b604051601f8201601f191681016001600160401b03811182821017156127a2576127a2612764565b604052919050565b600082601f8301126127bb57600080fd5b81356001600160401b038111156127d4576127d4612764565b6127e7601f8201601f191660200161277a565b8181528460208386010111156127fc57600080fd5b816020850160208301376000918101602001919091529392505050565b6000806040838503121561282c57600080fd5b8235915060208301356001600160401b0381111561284957600080fd5b612855858286016127aa565b9150509250929050565b60006001600160401b0382111561287857612878612764565b5060051b60200190565b600082601f83011261289357600080fd5b813560206128a86128a38361285f565b61277a565b82815260059290921b840181019181810190868411156128c757600080fd5b8286015b848110156128e257803583529183019183016128cb565b509695505050505050565b600080600080600060a0868803121561290557600080fd5b61290e86612623565b945061291c60208701612623565b935060408601356001600160401b038082111561293857600080fd5b61294489838a01612882565b9450606088013591508082111561295a57600080fd5b61296689838a01612882565b9350608088013591508082111561297c57600080fd5b50612989888289016127aa565b9150509295509295909350565b600080604083850312156129a957600080fd5b823591506129b960208401612623565b90509250929050565b600080604083850312156129d557600080fd5b82356001600160401b03808211156129ec57600080fd5b818501915085601f830112612a0057600080fd5b81356020612a106128a38361285f565b82815260059290921b84018101918181019089841115612a2f57600080fd5b948201945b83861015612a5457612a4586612623565b82529482019490820190612a34565b96505086013592505080821115612a6a57600080fd5b5061285585828601612882565b600081518084526020808501945080840160005b83811015612aa757815187529582019590820190600101612a8b565b509495945050505050565b60208152600061269c6020830184612a77565b600080600060608486031215612ada57600080fd5b612ae384612623565b925060208401356001600160401b0380821115612aff57600080fd5b612b0b87838801612882565b93506040860135915080821115612b2157600080fd5b50612b2e86828701612882565b9150509250925092565b6020815260008251610120806020850152612b576101408501836126e0565b91506020850151601f1980868503016040870152612b7584836126e0565b9350604087015191508086850301606087015250612b9383826126e0565b92505060608501516080850152608085015160a085015260a085015160c085015260c0850151612bce60e08601826001600160a01b03169052565b5060e0850151610100612be48187018315159052565b959095015193019290925250919050565b60008060408385031215612c0857600080fd5b50508035926020909101359150565b600060208284031215612c2957600080fd5b81356001600160401b03811115612c3f57600080fd5b612c4b848285016127aa565b949350505050565b60008060408385031215612c6657600080fd5b612c6f83612623565b91506129b96020840161271f565b6000610120808352612c918184018d6126e0565b90508281036020840152612ca5818c6126e0565b90508281036040840152612cb9818b6126e0565b60608401999099525050608081019590955260a08501939093526001600160a01b039190911660c0840152151560e0830152610100909101529392505050565b600080600080600080600080610100898b031215612d1657600080fd5b88356001600160401b0380821115612d2d57600080fd5b612d398c838d016127aa565b995060208b0135915080821115612d4f57600080fd5b612d5b8c838d016127aa565b985060408b0135915080821115612d7157600080fd5b612d7d8c838d016127aa565b975060608b0135965060808b0135955060a08b01359450612da060c08c01612623565b935060e08b0135915080821115612db657600080fd5b50612dc38b828c016127aa565b9150509295985092959890939650565b600060208284031215612de557600080fd5b61269c82612623565b60008060408385031215612e0157600080fd5b612e0a83612623565b91506129b960208401612623565b600080600080600060a08688031215612e3057600080fd5b612e3986612623565b9450612e4760208701612623565b9350604086013592506060860135915060808601356001600160401b03811115612e7057600080fd5b612989888289016127aa565b600080600060608486031215612e9157600080fd5b612e9a84612623565b95602085013595506040909401359392505050565b600181811c90821680612ec357607f821691505b602082108103612ee357634e487b7160e01b600052602260045260246000fd5b50919050565b60008351612efb8184602088016126bc565b835190830190612f0f8183602088016126bc565b64173539b7b760d91b9101908152600501949350505050565b601f821115610afe57600081815260208120601f850160051c81016020861015612f4f5750805b601f850160051c820191505b81811015610a9e57828155600101612f5b565b81516001600160401b03811115612f8757612f87612764565b612f9b81612f958454612eaf565b84612f28565b602080601f831160018114612fd05760008415612fb85750858301515b600019600386901b1c1916600185901b178555610a9e565b600085815260208120601f198616915b82811015612fff57888601518255948401946001909101908401612fe0565b508582101561301d5787850151600019600388901b60f8161c191681555b5050505050600190811b01905550565b634e487b7160e01b600052603260045260246000fd5b634e487b7160e01b600052601160045260246000fd5b60006001820161306b5761306b613043565b5060010190565b808202811582820484141761078157610781613043565b6000826130a657634e487b7160e01b600052601260045260246000fd5b500490565b8181038181111561078157610781613043565b600082516130d08184602087016126bc565b9190910192915050565b60c0815260006130ed60c08301896126e0565b82810360208401526130ff81896126e0565b9050828103604084015261311381886126e0565b6060840196909652505060808101929092526001600160a01b031660a0909101529392505050565b6001600160a01b03868116825285166020820152604081018490526060810183905260a060808201819052600090613175908301846126e0565b979650505050505050565b60006020828403121561319257600080fd5b815161269c81612669565b6001600160a01b0386811682528516602082015260a0604082018190526000906131c990830186612a77565b82810360608401526131db8186612a77565b905082810360808401526131ef81856126e0565b98975050505050505050565b8082018082111561078157610781613043565b6040815260006132216040830185612a77565b82810360208401526132338185612a77565b9594505050505056fea49807205ce4d355092ef5a8a18f56e8913cf4a201fbe287825b095693c21775a2646970667358221220254e5d10e091b2eabf5b09d842812cd269948a1a9788f48a466cb3039ddb73aa64736f6c63430008140033",
  "linkReferences": {},
  "deployedLinkReferences": {}
}