{
  "_format": "hh-sol-artifact-1",
  "contractName": "RoyaltyDistributor",
  "sourceName": "src/RoyaltyDistributor.sol",
  "abi": [
    {
      "inputs": [
        {
          "internalType": "address",
          "name": "_musicToken",
          "type": "address"
        }
      ],
      "stateMutability": "nonpayable",
      "type": "constructor"
    },
    {
      "inputs": [],
      "name": "AccessControlBadConfirmation",
      "type": "error"
    },
    {
      "inputs": [
        {
          "internalType": "address",
          "name": "account",
          "type": "address"
        },
        {
          "internalType": "bytes32",
          "name": "neededRole",
          "type": "bytes32"
        }
      ],
      "name": "AccessControlUnauthorizedAccount",
      "type": "error"
    },
    {
      "inputs": [],
      "name": "ReentrancyGuardReentrantCall",
      "type": "error"
    },
    {
      "anonymous": false,
      "inputs": [
        {
          "indexed": true,
          "internalType": "address",
          "name": "user",
          "type": "address"
        },
        {
          "indexed": false,
          "internalType": "uint256",
          "name": "totalAmount",
          "type": "uint256"
        }
      ],
      "name": "BatchRoyaltyClaimed",
      "type": "event"
    },
    {
      "anonymous": false,
      "inputs": [
        {
          "indexed": false,
          "internalType": "address",
          "name": "newMusicToken",
          "type": "address"
        }
      ],
      "name": "MusicTokenUpdated",
      "type": "event"
    },
    {
      "anonymous": false,
      "inputs": [
        {
          "indexed": true,
          "internalType": "bytes32",
          "name": "role",
          "type": "bytes32"
        },
        {
          "indexed": true,
          "internalType": "bytes32",
          "name": "previousAdminRole",
          "type": "bytes32"
        },
        {
          "indexed": true,
          "internalType": "bytes32",
          "name": "newAdminRole",
          "type": "bytes32"
        }
      ],
      "name": "RoleAdminChanged",
      "type": "event"
    },
    {
      "anonymous": false,
      "inputs": [
        {
          "indexed": true,
          "internalType": "bytes32",
          "name": "role",
          "type": "bytes32"
        },
        {
          "indexed": true,
          "internalType": "address",
          "name": "account",
          "type": "address"
        },
        {
          "indexed": true,
          "internalType": "address",
          "name": "sender",
          "type": "address"
        }
      ],
      "name": "RoleGranted",
      "type": "event"
    },
    {
      "anonymous": false,
      "inputs": [
        {
          "indexed": true,
          "internalType": "bytes32",
          "name": "role",
          "type": "bytes32"
        },
        {
          "indexed": true,
          "internalType": "address",
          "name": "account",
          "type": "address"
        },
        {
          "indexed": true,
          "internalType": "address",
          "name": "sender",
          "type": "address"
        }
      ],
      "name": "RoleRevoked",
      "type": "event"
    },
    {
      "anonymous": false,
      "inputs": [
        {
          "indexed": true,
          "internalType": "address",
          "name": "user",
          "type": "address"
        },
        {
          "indexed": true,
          "internalType": "uint256",
          "name": "trackId",
          "type": "uint256"
        },
        {
          "indexed": false,
          "internalType": "uint256",
          "name": "amount",
          "type": "uint256"
        }
      ],
      "name": "RoyaltyClaimed",
      "type": "event"
    },
    {
      "anonymous": false,
      "inputs": [
        {
          "indexed": true,
          "internalType": "uint256",
          "name": "distributionId",
          "type": "uint256"
        },
        {
          "indexed": true,
          "internalType": "uint256",
          "name": "trackId",
          "type": "uint256"
        },
        {
          "indexed": false,
          "internalType": "uint256",
          "name": "amount",
          "type": "uint256"
        },
        {
          "indexed": false,
          "internalType": "uint256",
          "name": "amountPerToken",
          "type": "uint256"
        },
        {
          "indexed": false,
          "internalType": "string",
          "name": "source",
          "type": "string"
        }
      ],
      "name": "RoyaltyDeposited",
      "type": "event"
    },
    {
      "inputs": [],
      "name": "ADMIN_ROLE",
      "outputs": [
        {
          "internalType": "bytes32",
          "name": "",
          "type": "bytes32"
        }
      ],
      "stateMutability": "view",
      "type": "function"
    },
    {
      "inputs": [],
      "name": "DEFAULT_ADMIN_ROLE",
      "outputs": [
        {
          "internalType": "bytes32",
          "name": "",
          "type": "bytes32"
        }
      ],
      "stateMutability": "view",
      "type": "function"
    },
    {
      "inputs": [],
      "name": "DISTRIBUTOR_ROLE",
      "outputs": [
        {
          "internalType": "bytes32",
          "name": "",
          "type": "bytes32"
        }
      ],
      "stateMutability": "view",
      "type": "function"
    },
    {
      "inputs": [
        {
          "internalType": "uint256",
          "name": "distributionId",
          "type": "uint256"
        }
      ],
      "name": "claimDistribution",
      "outputs": [],
      "stateMutability": "nonpayable",
      "type": "function"
    },
    {
      "inputs": [
        {
          "internalType": "uint256[]",
          "name": "distributionIds",
          "type": "uint256[]"
        }
      ],
      "name": "claimMultipleDistributions",
      "outputs": [],
      "stateMutability": "nonpayable",
      "type": "function"
    },
    {
      "inputs": [
        {
          "internalType": "uint256",
          "name": "",
          "type": "uint256"
        },
        {
          "internalType": "address",
          "name": "",
          "type": "address"
        }
      ],
      "name": "claimedRoyalties",
      "outputs": [
        {
          "internalType": "uint256",
          "name": "",
          "type": "uint256"
        }
      ],
      "stateMutability": "view",
      "type": "function"
    },
    {
      "inputs": [
        {
          "internalType": "uint256",
          "name": "trackId",
          "type": "uint256"
        },
        {
          "internalType": "uint256",
          "name": "totalSupply",
          "type": "uint256"
        },
        {
          "internalType": "string",
          "name": "source",
          "type": "string"
        }
      ],
      "name": "depositRoyalties",
      "outputs": [
        {
          "internalType": "uint256",
          "name": "",
          "type": "uint256"
        }
      ],
      "stateMutability": "payable",
      "type": "function"
    },
    {
      "inputs": [
        {
          "internalType": "uint256",
          "name": "",
          "type": "uint256"
        }
      ],
      "name": "distributions",
      "outputs": [
        {
          "internalType": "uint256",
          "name": "trackId",
          "type": "uint256"
        },
        {
          "internalType": "uint256",
          "name": "totalAmount",
          "type": "uint256"
        },
        {
          "internalType": "uint256",
          "name": "amountPerToken",
          "type": "uint256"
        },
        {
          "internalType": "uint256",
          "name": "totalSupply",
          "type": "uint256"
        },
        {
          "internalType": "uint256",
          "name": "timestamp",
          "type": "uint256"
        },
        {
          "internalType": "string",
          "name": "source",
          "type": "string"
        }
      ],
      "stateMutability": "view",
      "type": "function"
    },
    {
      "inputs": [],
      "name": "emergencyWithdraw",
      "outputs": [],
      "stateMutability": "nonpayable",
      "type": "function"
    },
    {
      "inputs": [
        {
          "internalType": "uint256",
          "name": "distributionId",
          "type": "uint256"
        },
        {
          "internalType": "address",
          "name": "user",
          "type": "address"
        }
      ],
      "name": "getClaimableAmount",
      "outputs": [
        {
          "internalType": "uint256",
          "name": "",
          "type": "uint256"
        }
      ],
      "stateMutability": "view",
      "type": "function"
    },
    {
      "inputs": [
        {
          "internalType": "uint256[]",
          "name": "distributionIds",
          "type": "uint256[]"
        },
        {
          "internalType": "address",
          "name": "user",
          "type": "address"
        }
      ],
      "name": "getClaimableAmounts",
      "outputs": [
        {
          "internalType": "uint256[]",
          "name": "amounts",
          "type": "uint256[]"
        },
        {
          "internalType": "uint256",
          "name": "total",
          "type": "uint256"
        }
      ],
      "stateMutability": "view",
      "type": "function"
    },
    {
      "inputs": [
        {
          "internalType": "uint256",
          "name": "distributionId",
          "type": "uint256"
        }
      ],
      "name": "getDistribution",
      "outputs": [
        {
          "components": [
            {
              "internalType": "uint256",
              "name": "trackId",
              "type": "uint256"
            },
            {
              "internalType": "uint256",
              "name": "totalAmount",
              "type": "uint256"
            },
            {
              "internalType": "uint256",
              "name": "amountPerToken",
              "type": "uint256"
            },
            {
              "internalType": "uint256",
              "name": "totalSupply",
              "type": "uint256"
            },
            {
              "internalType": "uint256",
              "name": "timestamp",
              "type": "uint256"
            },
            {
              "internalType": "string",
              "name": "source",
              "type": "string"
            }
          ],
          "internalType": "struct RoyaltyDistributor.Distribution",
          "name": "",
          "type": "tuple"
        }
      ],
      "stateMutability": "view",
      "type": "function"
    },
    {
      "inputs": [
        {
          "internalType": "bytes32",
          "name": "role",
          "type": "bytes32"
        }
      ],
      "name": "getRoleAdmin",
      "outputs": [
        {
          "internalType": "bytes32",
          "name": "",
          "type": "bytes32"
        }
      ],
      "stateMutability": "view",
      "type": "function"
    },
    {
      "inputs": [],
      "name": "getTotalDistributions",
      "outputs": [
        {
          "internalType": "uint256",
          "name": "",
          "type": "uint256"
        }
      ],
      "stateMutability": "view",
      "type": "function"
    },
    {
      "inputs": [
        {
          "internalType": "uint256",
          "name": "trackId",
          "type": "uint256"
        },
        {
          "internalType": "address",
          "name": "user",
          "type": "address"
        }
      ],
      "name": "getUserClaimedRoyalties",
      "outputs": [
        {
          "internalType": "uint256",
          "name": "",
          "type": "uint256"
        }
      ],
      "stateMutability": "view",
      "type": "function"
    },
    {
      "inputs": [
        {
          "internalType": "bytes32",
          "name": "role",
          "type": "bytes32"
        },
        {
          "internalType": "address",
          "name": "account",
          "type": "address"
        }
      ],
      "name": "grantRole",
      "outputs": [],
      "stateMutability": "nonpayable",
      "type": "function"
    },
    {
      "inputs": [
        {
          "internalType": "uint256",
          "name": "",
          "type": "uint256"
        },
        {
          "internalType": "address",
          "name": "",
          "type": "address"
        }
      ],
      "name": "hasClaimedDistribution",
      "outputs": [
        {
          "internalType": "bool",
          "name": "",
          "type": "bool"
        }
      ],
      "stateMutability": "view",
      "type": "function"
    },
    {
      "inputs": [
        {
          "internalType": "bytes32",
          "name": "role",
          "type": "bytes32"
        },
        {
          "internalType": "address",
          "name": "account",
          "type": "address"
        }
      ],
      "name": "hasRole",
      "outputs": [
        {
          "internalType": "bool",
          "name": "",
          "type": "bool"
        }
      ],
      "stateMutability": "view",
      "type": "function"
    },
    {
      "inputs": [],
      "name": "musicToken",
      "outputs": [
        {
          "internalType": "contract IERC1155",
          "name": "",
          "type": "address"
        }
      ],
      "stateMutability": "view",
      "type": "function"
    },
    {
      "inputs": [
        {
          "internalType": "address",
          "name": "",
          "type": "address"
        }
      ],
      "name": "pendingRoyalties",
      "outputs": [
        {
          "internalType": "uint256",
          "name": "",
          "type": "uint256"
        }
      ],
      "stateMutability": "view",
      "type": "function"
    },
    {
      "inputs": [
        {
          "internalType": "bytes32",
          "name": "role",
          "type": "bytes32"
        },
        {
          "internalType": "address",
          "name": "callerConfirmation",
          "type": "address"
        }
      ],
      "name": "renounceRole",
      "outputs": [],
      "stateMutability": "nonpayable",
      "type": "function"
    },
    {
      "inputs": [
        {
          "internalType": "bytes32",
          "name": "role",
          "type": "bytes32"
        },
        {
          "internalType": "address",
          "name": "account",
          "type": "address"
        }
      ],
      "name": "revokeRole",
      "outputs": [],
      "stateMutability": "nonpayable",
      "type": "function"
    },
    {
      "inputs": [
        {
          "internalType": "address",
          "name": "newMusicToken",
          "type": "address"
        }
      ],
      "name": "setMusicToken",
      "outputs": [],
      "stateMutability": "nonpayable",
      "type": "function"
    },
    {
      "inputs": [
        {
          "internalType": "bytes4",
          "name": "interfaceId",
          "type": "bytes4"
        }
      ],
      "name": "supportsInterface",
      "outputs": [
        {
          "internalType": "bool",
          "name": "",
          "type": "bool"
        }
      ],
      "stateMutability": "view",
      "type": "function"
    },
    {
      "inputs": [
        {
          "internalType": "uint256",
          "name": "",
          "type": "uint256"
        }
      ],
      "name": "totalRoyaltiesByTrack",
      "outputs": [
        {
          "internalType": "uint256",
          "name": "",
          "type": "uint256"
        }
      ],
      "stateMutability": "view",
      "type": "function"
    },
    {
      "stateMutability": "payable",
      "type": "receive"
    }
  ],
  "bytecode": "0x60806040523480156200001157600080fd5b5060405162001de738038062001de78339810160408190526200003491620001d0565b600180556001600160a01b038116620000935760405162461bcd60e51b815260206004820152601b60248201527f496e76616c6964206d7573696320746f6b656e20616464726573730000000000604482015260640160405180910390fd5b620000a060003362000121565b50620000cd7fa49807205ce4d355092ef5a8a18f56e8913cf4a201fbe287825b095693c217753362000121565b50620000fa7ffbd454f36a7e1a388bd6fc3ab10d434aa4578f811acbbcf33afb1c697486313c3362000121565b50600280546001600160a01b0319166001600160a01b039290921691909117905562000202565b6000828152602081815260408083206001600160a01b038516845290915281205460ff16620001c6576000838152602081815260408083206001600160a01b03861684529091529020805460ff191660011790556200017d3390565b6001600160a01b0316826001600160a01b0316847f2f8788117e7eff1d82e926ec794901d17c78024a50270940304540a733656f0d60405160405180910390a4506001620001ca565b5060005b92915050565b600060208284031215620001e357600080fd5b81516001600160a01b0381168114620001fb57600080fd5b9392505050565b611bd580620002126000396000f3fe60806040526004361061016a5760003560e01c80635e6d4a64116100d1578063a217fddf1161008a578063db2e21bc11610064578063db2e21bc146104b6578063eb3c79da146104cb578063f0bd87cc14610503578063fa9a990b1461053757600080fd5b8063a217fddf14610454578063ac2cdb0414610469578063d547741f1461049657600080fd5b80635e6d4a641461036357806375b238fc1461037857806378c5195e146103ac5780637f6172d2146103cc57806391d14854146104075780639a2fa9bb1461042757600080fd5b806336568abe1161012357806336568abe146102795780633ac91d82146102995780633b345a87146102b9578063446799f5146102e65780634487d3df1461031e57806354558fc51461035057600080fd5b806301ffc9a71461017657806305a9e0e6146101ab5780630bc9e00c146101cd57806316ce105d146101fb578063248a9ca31461021b5780632f2ff15d1461025957600080fd5b3661017157005b600080fd5b34801561018257600080fd5b50610196610191366004611605565b61057a565b60405190151581526020015b60405180910390f35b3480156101b757600080fd5b506101cb6101c6366004611682565b6105b1565b005b3480156101d957600080fd5b506101ed6101e83660046116e0565b61085a565b6040516101a2929190611734565b34801561020757600080fd5b506101cb61021636600461177c565b610a4b565b34801561022757600080fd5b5061024b610236366004611797565b60009081526020819052604090206001015490565b6040519081526020016101a2565b34801561026557600080fd5b506101cb6102743660046117b0565b610b12565b34801561028557600080fd5b506101cb6102943660046117b0565b610b3d565b3480156102a557600080fd5b506101cb6102b4366004611797565b610b75565b3480156102c557600080fd5b506102d96102d4366004611797565b610e67565b6040516101a29190611822565b3480156102f257600080fd5b5061024b6103013660046117b0565b600660209081526000928352604080842090915290825290205481565b34801561032a57600080fd5b5061033e610339366004611797565b610f89565b6040516101a296959493929190611877565b61024b61035e3660046118ca565b61104d565b34801561036f57600080fd5b5060035461024b565b34801561038457600080fd5b5061024b7fa49807205ce4d355092ef5a8a18f56e8913cf4a201fbe287825b095693c2177581565b3480156103b857600080fd5b5061024b6103c73660046117b0565b611266565b3480156103d857600080fd5b506101966103e73660046117b0565b600760209081526000928352604080842090915290825290205460ff1681565b34801561041357600080fd5b506101966104223660046117b0565b61135e565b34801561043357600080fd5b5061024b61044236600461177c565b60086020526000908152604090205481565b34801561046057600080fd5b5061024b600081565b34801561047557600080fd5b5061024b610484366004611797565b60056020526000908152604090205481565b3480156104a257600080fd5b506101cb6104b13660046117b0565b611387565b3480156104c257600080fd5b506101cb6113ac565b3480156104d757600080fd5b506002546104eb906001600160a01b031681565b6040516001600160a01b0390911681526020016101a2565b34801561050f57600080fd5b5061024b7ffbd454f36a7e1a388bd6fc3ab10d434aa4578f811acbbcf33afb1c697486313c81565b34801561054357600080fd5b5061024b6105523660046117b0565b60009182526006602090815260408084206001600160a01b0393909316845291905290205490565b60006001600160e01b03198216637965db0b60e01b14806105ab57506301ffc9a760e01b6001600160e01b03198316145b92915050565b6105b961149b565b6000805b828110156107435760008484838181106105d9576105d961198e565b60209081029290920135600081815260078452604080822033835290945292909220549192505060ff161561060e5750610731565b6000818152600460205260408120600181015490910361062f575050610731565b6002548154604051627eeac760e11b815233600482015260248101919091526000916001600160a01b03169062fdd58e90604401602060405180830381865afa158015610680573d6000803e3d6000fd5b505050506040513d601f19601f820116820180604052508101906106a491906119a4565b9050806000036106b657505050610731565b60008183600201546106c891906119d3565b9050801561072c57600084815260076020908152604080832033808552908352818420805460ff191660011790558654845260068352818420908452909152812080548392906107199084906119ea565b90915550610729905081876119ea565b95505b505050505b8061073b816119fd565b9150506105bd565b506000811161078c5760405162461bcd60e51b815260206004820152601060248201526f4e6f7468696e6720746f20636c61696d60801b60448201526064015b60405180910390fd5b604051600090339083908381818185875af1925050503d80600081146107ce576040519150601f19603f3d011682016040523d82523d6000602084013e6107d3565b606091505b50509050806108165760405162461bcd60e51b815260206004820152600f60248201526e151c985b9cd9995c8819985a5b1959608a1b6044820152606401610783565b60405182815233907fc572c86397a2941c8f55c5aa6c13dfde4a6fc994e12988d46e622b094b1543f89060200160405180910390a2505061085660018055565b5050565b606060008367ffffffffffffffff811115610877576108776118b4565b6040519080825280602002602001820160405280156108a0578160200160208202803683370190505b5091506000905060005b84811015610a425760008686838181106108c6576108c661198e565b6020908102929092013560008181526007845260408082206001600160a01b038b16835290945292909220549192505060ff16156109245760008483815181106109125761091261198e565b60200260200101818152505050610a30565b600081815260046020526040812060018101549091036109655760008584815181106109525761095261198e565b6020026020010181815250505050610a30565b6002548154604051627eeac760e11b81526000926001600160a01b03169162fdd58e916109aa918b916004016001600160a01b03929092168252602082015260400190565b602060405180830381865afa1580156109c7573d6000803e3d6000fd5b505050506040513d601f19601f820116820180604052508101906109eb91906119a4565b905060008183600201546109ff91906119d3565b905080878681518110610a1457610a1461198e565b6020908102919091010152610a2981876119ea565b9550505050505b80610a3a816119fd565b9150506108aa565b50935093915050565b7fa49807205ce4d355092ef5a8a18f56e8913cf4a201fbe287825b095693c21775610a75816114c5565b6001600160a01b038216610abd5760405162461bcd60e51b815260206004820152600f60248201526e496e76616c6964206164647265737360881b6044820152606401610783565b600280546001600160a01b0319166001600160a01b0384169081179091556040519081527f715b0e085185cb0876d4cf083a0da661f12e0cc92547520a5c505d52a94a7e459060200160405180910390a15050565b600082815260208190526040902060010154610b2d816114c5565b610b3783836114cf565b50505050565b6001600160a01b0381163314610b665760405163334bd91960e11b815260040160405180910390fd5b610b708282611561565b505050565b610b7d61149b565b600081815260076020908152604080832033845290915290205460ff1615610bd95760405162461bcd60e51b815260206004820152600f60248201526e105b1c9958591e4818db185a5b5959608a1b6044820152606401610783565b60008181526004602052604090206001810154610c385760405162461bcd60e51b815260206004820152601b60248201527f446973747269627574696f6e20646f6573206e6f7420657869737400000000006044820152606401610783565b6002548154604051627eeac760e11b815233600482015260248101919091526000916001600160a01b03169062fdd58e90604401602060405180830381865afa158015610c89573d6000803e3d6000fd5b505050506040513d601f19601f82011682018060405250810190610cad91906119a4565b905060008111610cf15760405162461bcd60e51b815260206004820152600f60248201526e139bc81d1bdad95b9cc81bdddb9959608a1b6044820152606401610783565b6000818360020154610d0391906119d3565b905060008111610d485760405162461bcd60e51b815260206004820152601060248201526f4e6f7468696e6720746f20636c61696d60801b6044820152606401610783565b600084815260076020908152604080832033808552908352818420805460ff19166001179055865484526006835281842090845290915281208054839290610d919084906119ea565b9091555050604051600090339083908381818185875af1925050503d8060008114610dd8576040519150601f19603f3d011682016040523d82523d6000602084013e610ddd565b606091505b5050905080610e205760405162461bcd60e51b815260206004820152600f60248201526e151c985b9cd9995c8819985a5b1959608a1b6044820152606401610783565b835460405183815233907f6fe778711f06ca052305b633ba1b304f4d71c1523776f2aa3059d8d99f5420de9060200160405180910390a350505050610e6460018055565b50565b610ea06040518060c001604052806000815260200160008152602001600081526020016000815260200160008152602001606081525090565b600460008381526020019081526020016000206040518060c00160405290816000820154815260200160018201548152602001600282015481526020016003820154815260200160048201548152602001600582018054610f0090611a16565b80601f0160208091040260200160405190810160405280929190818152602001828054610f2c90611a16565b8015610f795780601f10610f4e57610100808354040283529160200191610f79565b820191906000526020600020905b815481529060010190602001808311610f5c57829003601f168201915b5050505050815250509050919050565b6004602052806000526040600020600091509050806000015490806001015490806002015490806003015490806004015490806005018054610fca90611a16565b80601f0160208091040260200160405190810160405280929190818152602001828054610ff690611a16565b80156110435780601f1061101857610100808354040283529160200191611043565b820191906000526020600020905b81548152906001019060200180831161102657829003601f168201915b5050505050905086565b60007ffbd454f36a7e1a388bd6fc3ab10d434aa4578f811acbbcf33afb1c697486313c611079816114c5565b600034116110be5760405162461bcd60e51b81526020600482015260126024820152710416d6f756e74206d757374206265203e20360741b6044820152606401610783565b600084116111055760405162461bcd60e51b8152602060048201526014602482015273496e76616c696420746f74616c20737570706c7960601b6044820152606401610783565b60038054906000611115836119fd565b909155505060035460006111298634611a50565b9050600081116111855760405162461bcd60e51b815260206004820152602160248201527f416d6f756e7420746f6f20736d616c6c20666f7220646973747269627574696f6044820152603760f91b6064820152608401610783565b6040805160c081018252888152346020808301918252828401858152606084018b8152426080860190815260a086018c815260008a8152600495869052979097208651815594516001860155915160028501555160038401555190820155915190919060058201906111f79082611ac0565b505050600087815260056020526040812080543492906112189084906119ea565b9250508190555086827fc2dc08c3a90cbc43832ce99c1579f1902029d17e95cd426ef8ea1230570d85ee34848960405161125493929190611b80565b60405180910390a35095945050505050565b60008281526007602090815260408083206001600160a01b038516845290915281205460ff1615611299575060006105ab565b600083815260046020526040812060018101549091036112bd5760009150506105ab565b6002548154604051627eeac760e11b81526000926001600160a01b03169162fdd58e916113029188916004016001600160a01b03929092168252602082015260400190565b602060405180830381865afa15801561131f573d6000803e3d6000fd5b505050506040513d601f19601f8201168201806040525081019061134391906119a4565b905080826002015461135591906119d3565b95945050505050565b6000918252602082815260408084206001600160a01b0393909316845291905290205460ff1690565b6000828152602081905260409020600101546113a2816114c5565b610b378383611561565b7fa49807205ce4d355092ef5a8a18f56e8913cf4a201fbe287825b095693c217756113d6816114c5565b47806114115760405162461bcd60e51b815260206004820152600a6024820152694e6f2062616c616e636560b01b6044820152606401610783565b604051600090339083908381818185875af1925050503d8060008114611453576040519150601f19603f3d011682016040523d82523d6000602084013e611458565b606091505b5050905080610b705760405162461bcd60e51b815260206004820152600f60248201526e15da5d1a191c985dc819985a5b1959608a1b6044820152606401610783565b6002600154036114be57604051633ee5aeb560e01b815260040160405180910390fd5b6002600155565b610e6481336115cc565b60006114db838361135e565b611559576000838152602081815260408083206001600160a01b03861684529091529020805460ff191660011790556115113390565b6001600160a01b0316826001600160a01b0316847f2f8788117e7eff1d82e926ec794901d17c78024a50270940304540a733656f0d60405160405180910390a45060016105ab565b5060006105ab565b600061156d838361135e565b15611559576000838152602081815260408083206001600160a01b0386168085529252808320805460ff1916905551339286917ff6391f5c32d9c69d2a47ea670b442974b53935d1edc7fd64eb21e047a839171b9190a45060016105ab565b6115d6828261135e565b6108565760405163e2517d3f60e01b81526001600160a01b038216600482015260248101839052604401610783565b60006020828403121561161757600080fd5b81356001600160e01b03198116811461162f57600080fd5b9392505050565b60008083601f84011261164857600080fd5b50813567ffffffffffffffff81111561166057600080fd5b6020830191508360208260051b850101111561167b57600080fd5b9250929050565b6000806020838503121561169557600080fd5b823567ffffffffffffffff8111156116ac57600080fd5b6116b885828601611636565b90969095509350505050565b80356001600160a01b03811681146116db57600080fd5b919050565b6000806000604084860312156116f557600080fd5b833567ffffffffffffffff81111561170c57600080fd5b61171886828701611636565b909450925061172b9050602085016116c4565b90509250925092565b604080825283519082018190526000906020906060840190828701845b8281101561176d57815184529284019290840190600101611751565b50505092019290925292915050565b60006020828403121561178e57600080fd5b61162f826116c4565b6000602082840312156117a957600080fd5b5035919050565b600080604083850312156117c357600080fd5b823591506117d3602084016116c4565b90509250929050565b6000815180845260005b81811015611802576020818501810151868301820152016117e6565b506000602082860101526020601f19601f83011685010191505092915050565b6020815281516020820152602082015160408201526040820151606082015260608201516080820152608082015160a0820152600060a083015160c08084015261186f60e08401826117dc565b949350505050565b86815285602082015284604082015283606082015282608082015260c060a082015260006118a860c08301846117dc565b98975050505050505050565b634e487b7160e01b600052604160045260246000fd5b6000806000606084860312156118df57600080fd5b8335925060208401359150604084013567ffffffffffffffff8082111561190557600080fd5b818601915086601f83011261191957600080fd5b81358181111561192b5761192b6118b4565b604051601f8201601f19908116603f01168101908382118183101715611953576119536118b4565b8160405282815289602084870101111561196c57600080fd5b8260208601602083013760006020848301015280955050505050509250925092565b634e487b7160e01b600052603260045260246000fd5b6000602082840312156119b657600080fd5b5051919050565b634e487b7160e01b600052601160045260246000fd5b80820281158282048414176105ab576105ab6119bd565b808201808211156105ab576105ab6119bd565b600060018201611a0f57611a0f6119bd565b5060010190565b600181811c90821680611a2a57607f821691505b602082108103611a4a57634e487b7160e01b600052602260045260246000fd5b50919050565b600082611a6d57634e487b7160e01b600052601260045260246000fd5b500490565b601f821115610b7057600081815260208120601f850160051c81016020861015611a995750805b601f850160051c820191505b81811015611ab857828155600101611aa5565b505050505050565b815167ffffffffffffffff811115611ada57611ada6118b4565b611aee81611ae88454611a16565b84611a72565b602080601f831160018114611b235760008415611b0b5750858301515b600019600386901b1c1916600185901b178555611ab8565b600085815260208120601f198616915b82811015611b5257888601518255948401946001909101908401611b33565b5085821015611b705787850151600019600388901b60f8161c191681555b5050505050600190811b01905550565b83815282602082015260606040820152600061135560608301846117dc56fea2646970667358221220490cb7ce8ac7b5eaee5cb0f7082f9f6284fe3c90924225450a8b00bbdebbb5c164736f6c63430008140033",
  "linkReferences": {},
  "deployedLinkReferences": {}
}